{
  "_format": "hh-sol-artifact-1",
  "contractName": "NFTCollection",
  "sourceName": "contracts/NFTCollection.sol",
  "abi": [
    {
      "inputs": [],
      "stateMutability": "nonpayable",
      "type": "constructor"
    },
    {
      "anonymous": false,
      "inputs": [
        {
          "indexed": true,
          "internalType": "address",
          "name": "owner",
          "type": "address"
        },
        {
          "indexed": true,
          "internalType": "address",
          "name": "approved",
          "type": "address"
        },
        {
          "indexed": true,
          "internalType": "uint256",
          "name": "tokenId",
          "type": "uint256"
        }
      ],
      "name": "Approval",
      "type": "event"
    },
    {
      "anonymous": false,
      "inputs": [
        {
          "indexed": true,
          "internalType": "address",
          "name": "owner",
          "type": "address"
        },
        {
          "indexed": true,
          "internalType": "address",
          "name": "operator",
          "type": "address"
        },
        {
          "indexed": false,
          "internalType": "bool",
          "name": "approved",
          "type": "bool"
        }
      ],
      "name": "ApprovalForAll",
      "type": "event"
    },
    {
      "anonymous": false,
      "inputs": [
        {
          "indexed": false,
          "internalType": "address",
          "name": "owner",
          "type": "address"
        },
        {
          "indexed": false,
          "internalType": "uint256[]",
          "name": "assetIds",
          "type": "uint256[]"
        },
        {
          "indexed": false,
          "internalType": "string",
          "name": "tokenURI",
          "type": "string"
        }
      ],
      "name": "BatchMinted",
      "type": "event"
    },
    {
      "anonymous": false,
      "inputs": [
        {
          "indexed": false,
          "internalType": "address",
          "name": "owner",
          "type": "address"
        },
        {
          "indexed": false,
          "internalType": "uint256",
          "name": "assetId",
          "type": "uint256"
        },
        {
          "indexed": false,
          "internalType": "string",
          "name": "tokenURI",
          "type": "string"
        }
      ],
      "name": "Minted",
      "type": "event"
    },
    {
      "anonymous": false,
      "inputs": [
        {
          "indexed": true,
          "internalType": "address",
          "name": "from",
          "type": "address"
        },
        {
          "indexed": true,
          "internalType": "address",
          "name": "to",
          "type": "address"
        },
        {
          "indexed": true,
          "internalType": "uint256",
          "name": "tokenId",
          "type": "uint256"
        }
      ],
      "name": "Transfer",
      "type": "event"
    },
    {
      "inputs": [
        {
          "internalType": "address",
          "name": "to",
          "type": "address"
        },
        {
          "internalType": "uint256",
          "name": "tokenId",
          "type": "uint256"
        }
      ],
      "name": "approve",
      "outputs": [],
      "stateMutability": "nonpayable",
      "type": "function"
    },
    {
      "inputs": [
        {
          "internalType": "address",
          "name": "owner",
          "type": "address"
        }
      ],
      "name": "balanceOf",
      "outputs": [
        {
          "internalType": "uint256",
          "name": "",
          "type": "uint256"
        }
      ],
      "stateMutability": "view",
      "type": "function"
    },
    {
      "inputs": [
        {
          "internalType": "address",
          "name": "to",
          "type": "address"
        },
        {
          "internalType": "string",
          "name": "metaURI",
          "type": "string"
        },
        {
          "internalType": "uint256",
          "name": "supply",
          "type": "uint256"
        }
      ],
      "name": "batchMint",
      "outputs": [],
      "stateMutability": "nonpayable",
      "type": "function"
    },
    {
      "inputs": [
        {
          "internalType": "uint256",
          "name": "tokenId",
          "type": "uint256"
        }
      ],
      "name": "getApproved",
      "outputs": [
        {
          "internalType": "address",
          "name": "",
          "type": "address"
        }
      ],
      "stateMutability": "view",
      "type": "function"
    },
    {
      "inputs": [
        {
          "internalType": "address",
          "name": "owner",
          "type": "address"
        },
        {
          "internalType": "address",
          "name": "operator",
          "type": "address"
        }
      ],
      "name": "isApprovedForAll",
      "outputs": [
        {
          "internalType": "bool",
          "name": "",
          "type": "bool"
        }
      ],
      "stateMutability": "view",
      "type": "function"
    },
    {
      "inputs": [
        {
          "internalType": "address",
          "name": "to",
          "type": "address"
        },
        {
          "internalType": "string",
          "name": "metaURI",
          "type": "string"
        }
      ],
      "name": "mint",
      "outputs": [],
      "stateMutability": "nonpayable",
      "type": "function"
    },
    {
      "inputs": [],
      "name": "name",
      "outputs": [
        {
          "internalType": "string",
          "name": "",
          "type": "string"
        }
      ],
      "stateMutability": "view",
      "type": "function"
    },
    {
      "inputs": [
        {
          "internalType": "uint256",
          "name": "tokenId",
          "type": "uint256"
        }
      ],
      "name": "ownerOf",
      "outputs": [
        {
          "internalType": "address",
          "name": "",
          "type": "address"
        }
      ],
      "stateMutability": "view",
      "type": "function"
    },
    {
      "inputs": [
        {
          "internalType": "address",
          "name": "from",
          "type": "address"
        },
        {
          "internalType": "address",
          "name": "to",
          "type": "address"
        },
        {
          "internalType": "uint256",
          "name": "tokenId",
          "type": "uint256"
        }
      ],
      "name": "safeTransferFrom",
      "outputs": [],
      "stateMutability": "nonpayable",
      "type": "function"
    },
    {
      "inputs": [
        {
          "internalType": "address",
          "name": "from",
          "type": "address"
        },
        {
          "internalType": "address",
          "name": "to",
          "type": "address"
        },
        {
          "internalType": "uint256",
          "name": "tokenId",
          "type": "uint256"
        },
        {
          "internalType": "bytes",
          "name": "_data",
          "type": "bytes"
        }
      ],
      "name": "safeTransferFrom",
      "outputs": [],
      "stateMutability": "nonpayable",
      "type": "function"
    },
    {
      "inputs": [
        {
          "internalType": "address",
          "name": "operator",
          "type": "address"
        },
        {
          "internalType": "bool",
          "name": "approved",
          "type": "bool"
        }
      ],
      "name": "setApprovalForAll",
      "outputs": [],
      "stateMutability": "nonpayable",
      "type": "function"
    },
    {
      "inputs": [
        {
          "internalType": "bytes4",
          "name": "interfaceId",
          "type": "bytes4"
        }
      ],
      "name": "supportsInterface",
      "outputs": [
        {
          "internalType": "bool",
          "name": "",
          "type": "bool"
        }
      ],
      "stateMutability": "view",
      "type": "function"
    },
    {
      "inputs": [],
      "name": "symbol",
      "outputs": [
        {
          "internalType": "string",
          "name": "",
          "type": "string"
        }
      ],
      "stateMutability": "view",
      "type": "function"
    },
    {
      "inputs": [
        {
          "internalType": "uint256",
          "name": "index",
          "type": "uint256"
        }
      ],
      "name": "tokenByIndex",
      "outputs": [
        {
          "internalType": "uint256",
          "name": "",
          "type": "uint256"
        }
      ],
      "stateMutability": "view",
      "type": "function"
    },
    {
      "inputs": [
        {
          "internalType": "address",
          "name": "owner",
          "type": "address"
        }
      ],
      "name": "tokenMetadataOfOwner",
      "outputs": [
        {
          "components": [
            {
              "internalType": "uint256",
              "name": "assetId",
              "type": "uint256"
            },
            {
              "internalType": "string",
              "name": "metaURI",
              "type": "string"
            }
          ],
          "internalType": "struct NFTCollection.TokenMetadata[]",
          "name": "",
          "type": "tuple[]"
        }
      ],
      "stateMutability": "view",
      "type": "function"
    },
    {
      "inputs": [
        {
          "internalType": "address",
          "name": "owner",
          "type": "address"
        },
        {
          "internalType": "uint256",
          "name": "index",
          "type": "uint256"
        }
      ],
      "name": "tokenOfOwnerByIndex",
      "outputs": [
        {
          "internalType": "uint256",
          "name": "",
          "type": "uint256"
        }
      ],
      "stateMutability": "view",
      "type": "function"
    },
    {
      "inputs": [
        {
          "internalType": "uint256",
          "name": "tokenId",
          "type": "uint256"
        }
      ],
      "name": "tokenURI",
      "outputs": [
        {
          "internalType": "string",
          "name": "",
          "type": "string"
        }
      ],
      "stateMutability": "view",
      "type": "function"
    },
    {
      "inputs": [
        {
          "internalType": "address",
          "name": "owner",
          "type": "address"
        }
      ],
      "name": "tokensOfOwner",
      "outputs": [
        {
          "internalType": "uint256[]",
          "name": "",
          "type": "uint256[]"
        }
      ],
      "stateMutability": "view",
      "type": "function"
    },
    {
      "inputs": [],
      "name": "totalSupply",
      "outputs": [
        {
          "internalType": "uint256",
          "name": "",
          "type": "uint256"
        }
      ],
      "stateMutability": "view",
      "type": "function"
    },
    {
      "inputs": [
        {
          "internalType": "address",
          "name": "from",
          "type": "address"
        },
        {
          "internalType": "address",
          "name": "to",
          "type": "address"
        },
        {
          "internalType": "uint256",
          "name": "tokenId",
          "type": "uint256"
        }
      ],
      "name": "transferFrom",
      "outputs": [],
      "stateMutability": "nonpayable",
      "type": "function"
    }
  ],
  "bytecode": "0x60806040523480156200001157600080fd5b506040518060400160405280601081526020017f476f666f7820436f6c6c656374696f6e000000000000000000000000000000008152506040518060400160405280600381526020017f47465800000000000000000000000000000000000000000000000000000000008152508181816000908051906020019062000098929190620000bc565b508060019080519060200190620000b1929190620000bc565b5050505050620001d1565b828054620000ca906200016c565b90600052602060002090601f016020900481019282620000ee57600085556200013a565b82601f106200010957805160ff19168380011785556200013a565b828001600101855582156200013a579182015b82811115620001395782518255916020019190600101906200011c565b5b5090506200014991906200014d565b5090565b5b80821115620001685760008160009055506001016200014e565b5090565b600060028204905060018216806200018557607f821691505b602082108114156200019c576200019b620001a2565b5b50919050565b7f4e487b7100000000000000000000000000000000000000000000000000000000600052602260045260246000fd5b613c4e80620001e16000396000f3fe608060405234801561001057600080fd5b506004361061012c5760003560e01c80636352211e116100ad578063b88d4fde11610071578063b88d4fde1461037b578063c87b56dd14610397578063c8dfca13146103c7578063d0def521146103e3578063e985e9c5146103ff5761012c565b80636352211e146102b157806370a08231146102e15780638462151c1461031157806395d89b4114610341578063a22cb4651461035f5761012c565b806323b872dd116100f457806323b872dd146101e957806324920e59146102055780632f745c591461023557806342842e0e146102655780634f6ccce7146102815761012c565b806301ffc9a71461013157806306fdde0314610161578063081812fc1461017f578063095ea7b3146101af57806318160ddd146101cb575b600080fd5b61014b60048036038101906101469190612860565b61042f565b6040516101589190612f1a565b60405180910390f35b610169610441565b6040516101769190612f35565b60405180910390f35b610199600480360381019061019491906128b2565b6104d3565b6040516101a69190612dec565b60405180910390f35b6101c960048036038101906101c49190612824565b610558565b005b6101d3610670565b6040516101e091906131b7565b60405180910390f35b61020360048036038101906101fe9190612663565b61067d565b005b61021f600480360381019061021a91906125fe565b6106dd565b60405161022c9190612ed6565b60405180910390f35b61024f600480360381019061024a9190612824565b610815565b60405161025c91906131b7565b60405180910390f35b61027f600480360381019061027a9190612663565b6108ba565b005b61029b600480360381019061029691906128b2565b6108da565b6040516102a891906131b7565b60405180910390f35b6102cb60048036038101906102c691906128b2565b610971565b6040516102d89190612dec565b60405180910390f35b6102fb60048036038101906102f691906125fe565b610a23565b60405161030891906131b7565b60405180910390f35b61032b600480360381019061032691906125fe565b610adb565b6040516103389190612ef8565b60405180910390f35b610349610aed565b6040516103569190612f35565b60405180910390f35b6103796004803603810190610374919061272d565b610b7f565b005b610395600480360381019061039091906126b2565b610d00565b005b6103b160048036038101906103ac91906128b2565b610d62565b6040516103be9190612f35565b60405180910390f35b6103e160048036038101906103dc91906127bd565b610d74565b005b6103fd60048036038101906103f89190612769565b610eeb565b005b61041960048036038101906104149190612627565b610f39565b6040516104269190612f1a565b60405180910390f35b600061043a82610fcd565b9050919050565b606060008054610450906134a0565b80601f016020809104026020016040519081016040528092919081815260200182805461047c906134a0565b80156104c95780601f1061049e576101008083540402835291602001916104c9565b820191906000526020600020905b8154815290600101906020018083116104ac57829003601f168201915b5050505050905090565b60006104de82611047565b61051d576040517f08c379a0000000000000000000000000000000000000000000000000000000008152600401610514906130f7565b60405180910390fd5b6004600083815260200190815260200160002060009054906101000a900473ffffffffffffffffffffffffffffffffffffffff169050919050565b600061056382610971565b90508073ffffffffffffffffffffffffffffffffffffffff168373ffffffffffffffffffffffffffffffffffffffff1614156105d4576040517f08c379a00000000000000000000000000000000000000000000000000000000081526004016105cb90613157565b60405180910390fd5b8073ffffffffffffffffffffffffffffffffffffffff166105f36110b3565b73ffffffffffffffffffffffffffffffffffffffff16148061062257506106218161061c6110b3565b610f39565b5b610661576040517f08c379a000000000000000000000000000000000000000000000000000000000815260040161065890613037565b60405180910390fd5b61066b83836110bb565b505050565b6000600980549050905090565b61068e6106886110b3565b82611174565b6106cd576040517f08c379a00000000000000000000000000000000000000000000000000000000081526004016106c490613177565b60405180910390fd5b6106d8838383611252565b505050565b606060006106ea83610a23565b905060008167ffffffffffffffff81111561072e577f4e487b7100000000000000000000000000000000000000000000000000000000600052604160045260246000fd5b60405190808252806020026020018201604052801561076757816020015b610754612408565b81526020019060019003908161074c5790505b50905060005b828163ffffffff16101561080a57600061078d868363ffffffff16610815565b905060405180604001604052808281526020016107a983610d62565b815250838363ffffffff16815181106107eb577f4e487b7100000000000000000000000000000000000000000000000000000000600052603260045260246000fd5b60200260200101819052505080806108029061354c565b91505061076d565b508092505050919050565b600061082083610a23565b8210610861576040517f08c379a000000000000000000000000000000000000000000000000000000000815260040161085890612f57565b60405180910390fd5b600760008473ffffffffffffffffffffffffffffffffffffffff1673ffffffffffffffffffffffffffffffffffffffff168152602001908152602001600020600083815260200190815260200160002054905092915050565b6108d583838360405180602001604052806000815250610d00565b505050565b60006108e4610670565b8210610925576040517f08c379a000000000000000000000000000000000000000000000000000000000815260040161091c90613197565b60405180910390fd5b6009828154811061095f577f4e487b7100000000000000000000000000000000000000000000000000000000600052603260045260246000fd5b90600052602060002001549050919050565b6000806002600084815260200190815260200160002060009054906101000a900473ffffffffffffffffffffffffffffffffffffffff169050600073ffffffffffffffffffffffffffffffffffffffff168173ffffffffffffffffffffffffffffffffffffffff161415610a1a576040517f08c379a0000000000000000000000000000000000000000000000000000000008152600401610a1190613077565b60405180910390fd5b80915050919050565b60008073ffffffffffffffffffffffffffffffffffffffff168273ffffffffffffffffffffffffffffffffffffffff161415610a94576040517f08c379a0000000000000000000000000000000000000000000000000000000008152600401610a8b90613057565b60405180910390fd5b600360008373ffffffffffffffffffffffffffffffffffffffff1673ffffffffffffffffffffffffffffffffffffffff168152602001908152602001600020549050919050565b6060610ae6826114ae565b9050919050565b606060018054610afc906134a0565b80601f0160208091040260200160405190810160405280929190818152602001828054610b28906134a0565b8015610b755780601f10610b4a57610100808354040283529160200191610b75565b820191906000526020600020905b815481529060010190602001808311610b5857829003601f168201915b5050505050905090565b610b876110b3565b73ffffffffffffffffffffffffffffffffffffffff168273ffffffffffffffffffffffffffffffffffffffff161415610bf5576040517f08c379a0000000000000000000000000000000000000000000000000000000008152600401610bec90612fd7565b60405180910390fd5b8060056000610c026110b3565b73ffffffffffffffffffffffffffffffffffffffff1673ffffffffffffffffffffffffffffffffffffffff16815260200190815260200160002060008473ffffffffffffffffffffffffffffffffffffffff1673ffffffffffffffffffffffffffffffffffffffff16815260200190815260200160002060006101000a81548160ff0219169083151502179055508173ffffffffffffffffffffffffffffffffffffffff16610caf6110b3565b73ffffffffffffffffffffffffffffffffffffffff167f17307eab39ab6107e8899845ad3d59bd9653f200f220920489ca2b5937696c3183604051610cf49190612f1a565b60405180910390a35050565b610d11610d0b6110b3565b83611174565b610d50576040517f08c379a0000000000000000000000000000000000000000000000000000000008152600401610d4790613177565b60405180910390fd5b610d5c848484846115ba565b50505050565b6060610d6d82611616565b9050919050565b60008111610db7576040517f08c379a0000000000000000000000000000000000000000000000000000000008152600401610dae90612ff7565b60405180910390fd5b60008167ffffffffffffffff811115610df9577f4e487b7100000000000000000000000000000000000000000000000000000000600052604160045260246000fd5b604051908082528060200260200182016040528015610e275781602001602082028036833780820191505090505b50905060005b828163ffffffff161015610ea9576000610e478686611768565b905080838363ffffffff1681518110610e89577f4e487b7100000000000000000000000000000000000000000000000000000000600052603260045260246000fd5b602002602001018181525050508080610ea19061354c565b915050610e2d565b507f54386f3605e3fe33dff4de64d20b63eb4fadd21ad6d6aee3d3667febde8db49b848285604051610edd93929190612e53565b60405180910390a150505050565b6000610ef78383611768565b90507fe7cd4ce7f2a465edc730269a1305e8a48bad821e8fb7e152ec413829c01a53c4838284604051610f2c93929190612e98565b60405180910390a1505050565b6000600560008473ffffffffffffffffffffffffffffffffffffffff1673ffffffffffffffffffffffffffffffffffffffff16815260200190815260200160002060008373ffffffffffffffffffffffffffffffffffffffff1673ffffffffffffffffffffffffffffffffffffffff16815260200190815260200160002060009054906101000a900460ff16905092915050565b60007f780e9d63000000000000000000000000000000000000000000000000000000007bffffffffffffffffffffffffffffffffffffffffffffffffffffffff1916827bffffffffffffffffffffffffffffffffffffffffffffffffffffffff19161480611040575061103f826117a0565b5b9050919050565b60008073ffffffffffffffffffffffffffffffffffffffff166002600084815260200190815260200160002060009054906101000a900473ffffffffffffffffffffffffffffffffffffffff1673ffffffffffffffffffffffffffffffffffffffff1614159050919050565b600033905090565b816004600083815260200190815260200160002060006101000a81548173ffffffffffffffffffffffffffffffffffffffff021916908373ffffffffffffffffffffffffffffffffffffffff160217905550808273ffffffffffffffffffffffffffffffffffffffff1661112e83610971565b73ffffffffffffffffffffffffffffffffffffffff167f8c5be1e5ebec7d5bd14f71427d1e84f3dd0314c0f7b2291e5b200ac8c7c3b92560405160405180910390a45050565b600061117f82611047565b6111be576040517f08c379a00000000000000000000000000000000000000000000000000000000081526004016111b590613017565b60405180910390fd5b60006111c983610971565b90508073ffffffffffffffffffffffffffffffffffffffff168473ffffffffffffffffffffffffffffffffffffffff16148061123857508373ffffffffffffffffffffffffffffffffffffffff16611220846104d3565b73ffffffffffffffffffffffffffffffffffffffff16145b8061124957506112488185610f39565b5b91505092915050565b8273ffffffffffffffffffffffffffffffffffffffff1661127282610971565b73ffffffffffffffffffffffffffffffffffffffff16146112c8576040517f08c379a00000000000000000000000000000000000000000000000000000000081526004016112bf90613117565b60405180910390fd5b600073ffffffffffffffffffffffffffffffffffffffff168273ffffffffffffffffffffffffffffffffffffffff161415611338576040517f08c379a000000000000000000000000000000000000000000000000000000000815260040161132f90612fb7565b60405180910390fd5b611343838383611882565b61134e6000826110bb565b6001600360008573ffffffffffffffffffffffffffffffffffffffff1673ffffffffffffffffffffffffffffffffffffffff168152602001908152602001600020600082825461139e91906133a6565b925050819055506001600360008473ffffffffffffffffffffffffffffffffffffffff1673ffffffffffffffffffffffffffffffffffffffff16815260200190815260200160002060008282546113f5919061331f565b92505081905550816002600083815260200190815260200160002060006101000a81548173ffffffffffffffffffffffffffffffffffffffff021916908373ffffffffffffffffffffffffffffffffffffffff160217905550808273ffffffffffffffffffffffffffffffffffffffff168473ffffffffffffffffffffffffffffffffffffffff167fddf252ad1be2c89b69c2b068fc378daa952ba7f163c4a11628f55a4df523b3ef60405160405180910390a4505050565b606060006114bb83610a23565b905060008167ffffffffffffffff8111156114ff577f4e487b7100000000000000000000000000000000000000000000000000000000600052604160045260246000fd5b60405190808252806020026020018201604052801561152d5781602001602082028036833780820191505090505b50905060005b828163ffffffff1610156115af57611551858263ffffffff16610815565b828263ffffffff1681518110611590577f4e487b7100000000000000000000000000000000000000000000000000000000600052603260045260246000fd5b60200260200101818152505080806115a79061354c565b915050611533565b508092505050919050565b6115c5848484611252565b6115d184848484611892565b611610576040517f08c379a000000000000000000000000000000000000000000000000000000000815260040161160790612f77565b60405180910390fd5b50505050565b606061162182611047565b611660576040517f08c379a0000000000000000000000000000000000000000000000000000000008152600401611657906130d7565b60405180910390fd5b6000600660008481526020019081526020016000208054611680906134a0565b80601f01602080910402602001604051908101604052809291908181526020018280546116ac906134a0565b80156116f95780601f106116ce576101008083540402835291602001916116f9565b820191906000526020600020905b8154815290600101906020018083116116dc57829003601f168201915b50505050509050600061170a611a29565b9050600081511415611720578192505050611763565b60008251111561175557808260405160200161173d929190612dc8565b60405160208183030381529060405292505050611763565b61175e84611a40565b925050505b919050565b6000611774600b611ae7565b6000611780600b611afd565b905061178c8482611b0b565b6117968184611cd9565b8091505092915050565b60007f80ac58cd000000000000000000000000000000000000000000000000000000007bffffffffffffffffffffffffffffffffffffffffffffffffffffffff1916827bffffffffffffffffffffffffffffffffffffffffffffffffffffffff1916148061186b57507f5b5e139f000000000000000000000000000000000000000000000000000000007bffffffffffffffffffffffffffffffffffffffffffffffffffffffff1916827bffffffffffffffffffffffffffffffffffffffffffffffffffffffff1916145b8061187b575061187a82611d4d565b5b9050919050565b61188d838383611db7565b505050565b60006118b38473ffffffffffffffffffffffffffffffffffffffff16611ecb565b15611a1c578373ffffffffffffffffffffffffffffffffffffffff1663150b7a026118dc6110b3565b8786866040518563ffffffff1660e01b81526004016118fe9493929190612e07565b602060405180830381600087803b15801561191857600080fd5b505af192505050801561194957506040513d601f19601f820116820180604052508101906119469190612889565b60015b6119cc573d8060008114611979576040519150601f19603f3d011682016040523d82523d6000602084013e61197e565b606091505b506000815114156119c4576040517f08c379a00000000000000000000000000000000000000000000000000000000081526004016119bb90612f77565b60405180910390fd5b805181602001fd5b63150b7a0260e01b7bffffffffffffffffffffffffffffffffffffffffffffffffffffffff1916817bffffffffffffffffffffffffffffffffffffffffffffffffffffffff191614915050611a21565b600190505b949350505050565b606060405180602001604052806000815250905090565b6060611a4b82611047565b611a8a576040517f08c379a0000000000000000000000000000000000000000000000000000000008152600401611a8190613137565b60405180910390fd5b6000611a94611a29565b90506000815111611ab45760405180602001604052806000815250611adf565b80611abe84611ede565b604051602001611acf929190612dc8565b6040516020818303038152906040525b915050919050565b6001816000016000828254019250508190555050565b600081600001549050919050565b600073ffffffffffffffffffffffffffffffffffffffff168273ffffffffffffffffffffffffffffffffffffffff161415611b7b576040517f08c379a0000000000000000000000000000000000000000000000000000000008152600401611b72906130b7565b60405180910390fd5b611b8481611047565b15611bc4576040517f08c379a0000000000000000000000000000000000000000000000000000000008152600401611bbb90612f97565b60405180910390fd5b611bd060008383611882565b6001600360008473ffffffffffffffffffffffffffffffffffffffff1673ffffffffffffffffffffffffffffffffffffffff1681526020019081526020016000206000828254611c20919061331f565b92505081905550816002600083815260200190815260200160002060006101000a81548173ffffffffffffffffffffffffffffffffffffffff021916908373ffffffffffffffffffffffffffffffffffffffff160217905550808273ffffffffffffffffffffffffffffffffffffffff16600073ffffffffffffffffffffffffffffffffffffffff167fddf252ad1be2c89b69c2b068fc378daa952ba7f163c4a11628f55a4df523b3ef60405160405180910390a45050565b611ce282611047565b611d21576040517f08c379a0000000000000000000000000000000000000000000000000000000008152600401611d1890613097565b60405180910390fd5b80600660008481526020019081526020016000209080519060200190611d48929190612422565b505050565b60007f01ffc9a7000000000000000000000000000000000000000000000000000000007bffffffffffffffffffffffffffffffffffffffffffffffffffffffff1916827bffffffffffffffffffffffffffffffffffffffffffffffffffffffff1916149050919050565b611dc283838361208b565b600073ffffffffffffffffffffffffffffffffffffffff168373ffffffffffffffffffffffffffffffffffffffff161415611e0557611e0081612090565b611e44565b8173ffffffffffffffffffffffffffffffffffffffff168373ffffffffffffffffffffffffffffffffffffffff1614611e4357611e4283826120d9565b5b5b600073ffffffffffffffffffffffffffffffffffffffff168273ffffffffffffffffffffffffffffffffffffffff161415611e8757611e8281612246565b611ec6565b8273ffffffffffffffffffffffffffffffffffffffff168273ffffffffffffffffffffffffffffffffffffffff1614611ec557611ec48282612389565b5b5b505050565b600080823b905060008111915050919050565b60606000821415611f26576040518060400160405280600181526020017f30000000000000000000000000000000000000000000000000000000000000008152509050612086565b600082905060005b60008214611f58578080611f4190613503565b915050600a82611f519190613375565b9150611f2e565b60008167ffffffffffffffff811115611f9a577f4e487b7100000000000000000000000000000000000000000000000000000000600052604160045260246000fd5b6040519080825280601f01601f191660200182016040528015611fcc5781602001600182028036833780820191505090505b5090505b6000851461207f57600182611fe591906133a6565b9150600a85611ff49190613579565b6030612000919061331f565b60f81b81838151811061203c577f4e487b7100000000000000000000000000000000000000000000000000000000600052603260045260246000fd5b60200101907effffffffffffffffffffffffffffffffffffffffffffffffffffffffffffff1916908160001a905350600a856120789190613375565b9450611fd0565b8093505050505b919050565b505050565b600980549050600a600083815260200190815260200160002081905550600981908060018154018082558091505060019003906000526020600020016000909190919091505550565b600060016120e684610a23565b6120f091906133a6565b90506000600860008481526020019081526020016000205490508181146121d5576000600760008673ffffffffffffffffffffffffffffffffffffffff1673ffffffffffffffffffffffffffffffffffffffff168152602001908152602001600020600084815260200190815260200160002054905080600760008773ffffffffffffffffffffffffffffffffffffffff1673ffffffffffffffffffffffffffffffffffffffff168152602001908152602001600020600084815260200190815260200160002081905550816008600083815260200190815260200160002081905550505b6008600084815260200190815260200160002060009055600760008573ffffffffffffffffffffffffffffffffffffffff1673ffffffffffffffffffffffffffffffffffffffff16815260200190815260200160002060008381526020019081526020016000206000905550505050565b6000600160098054905061225a91906133a6565b90506000600a60008481526020019081526020016000205490506000600983815481106122b0577f4e487b7100000000000000000000000000000000000000000000000000000000600052603260045260246000fd5b9060005260206000200154905080600983815481106122f8577f4e487b7100000000000000000000000000000000000000000000000000000000600052603260045260246000fd5b906000526020600020018190555081600a600083815260200190815260200160002081905550600a600085815260200190815260200160002060009055600980548061236d577f4e487b7100000000000000000000000000000000000000000000000000000000600052603160045260246000fd5b6001900381819060005260206000200160009055905550505050565b600061239483610a23565b905081600760008573ffffffffffffffffffffffffffffffffffffffff1673ffffffffffffffffffffffffffffffffffffffff168152602001908152602001600020600083815260200190815260200160002081905550806008600084815260200190815260200160002081905550505050565b604051806040016040528060008152602001606081525090565b82805461242e906134a0565b90600052602060002090601f0160209004810192826124505760008555612497565b82601f1061246957805160ff1916838001178555612497565b82800160010185558215612497579182015b8281111561249657825182559160200191906001019061247b565b5b5090506124a491906124a8565b5090565b5b808211156124c15760008160009055506001016124a9565b5090565b60006124d86124d3846131f7565b6131d2565b9050828152602081018484840111156124f057600080fd5b6124fb84828561345e565b509392505050565b600061251661251184613228565b6131d2565b90508281526020810184848401111561252e57600080fd5b61253984828561345e565b509392505050565b60008135905061255081613bbc565b92915050565b60008135905061256581613bd3565b92915050565b60008135905061257a81613bea565b92915050565b60008151905061258f81613bea565b92915050565b600082601f8301126125a657600080fd5b81356125b68482602086016124c5565b91505092915050565b600082601f8301126125d057600080fd5b81356125e0848260208601612503565b91505092915050565b6000813590506125f881613c01565b92915050565b60006020828403121561261057600080fd5b600061261e84828501612541565b91505092915050565b6000806040838503121561263a57600080fd5b600061264885828601612541565b925050602061265985828601612541565b9150509250929050565b60008060006060848603121561267857600080fd5b600061268686828701612541565b935050602061269786828701612541565b92505060406126a8868287016125e9565b9150509250925092565b600080600080608085870312156126c857600080fd5b60006126d687828801612541565b94505060206126e787828801612541565b93505060406126f8878288016125e9565b925050606085013567ffffffffffffffff81111561271557600080fd5b61272187828801612595565b91505092959194509250565b6000806040838503121561274057600080fd5b600061274e85828601612541565b925050602061275f85828601612556565b9150509250929050565b6000806040838503121561277c57600080fd5b600061278a85828601612541565b925050602083013567ffffffffffffffff8111156127a757600080fd5b6127b3858286016125bf565b9150509250929050565b6000806000606084860312156127d257600080fd5b60006127e086828701612541565b935050602084013567ffffffffffffffff8111156127fd57600080fd5b612809868287016125bf565b925050604061281a868287016125e9565b9150509250925092565b6000806040838503121561283757600080fd5b600061284585828601612541565b9250506020612856858286016125e9565b9150509250929050565b60006020828403121561287257600080fd5b60006128808482850161256b565b91505092915050565b60006020828403121561289b57600080fd5b60006128a984828501612580565b91505092915050565b6000602082840312156128c457600080fd5b60006128d2848285016125e9565b91505092915050565b60006128e78383612d6d565b905092915050565b60006128fb8383612daa565b60208301905092915050565b612910816133da565b82525050565b600061292182613279565b61292b81856132bf565b93508360208202850161293d85613259565b8060005b85811015612979578484038952815161295a85826128db565b9450612965836132a5565b925060208a01995050600181019050612941565b50829750879550505050505092915050565b600061299682613284565b6129a081856132d0565b93506129ab83613269565b8060005b838110156129dc5781516129c388826128ef565b97506129ce836132b2565b9250506001810190506129af565b5085935050505092915050565b6129f2816133ec565b82525050565b6000612a038261328f565b612a0d81856132e1565b9350612a1d81856020860161346d565b612a2681613666565b840191505092915050565b6000612a3c8261329a565b612a4681856132f2565b9350612a5681856020860161346d565b612a5f81613666565b840191505092915050565b6000612a758261329a565b612a7f8185613303565b9350612a8f81856020860161346d565b612a9881613666565b840191505092915050565b6000612aae8261329a565b612ab88185613314565b9350612ac881856020860161346d565b80840191505092915050565b6000612ae1602b83613303565b9150612aec82613677565b604082019050919050565b6000612b04603283613303565b9150612b0f826136c6565b604082019050919050565b6000612b27601c83613303565b9150612b3282613715565b602082019050919050565b6000612b4a602483613303565b9150612b558261373e565b604082019050919050565b6000612b6d601983613303565b9150612b788261378d565b602082019050919050565b6000612b90601a83613303565b9150612b9b826137b6565b602082019050919050565b6000612bb3602c83613303565b9150612bbe826137df565b604082019050919050565b6000612bd6603883613303565b9150612be18261382e565b604082019050919050565b6000612bf9602a83613303565b9150612c048261387d565b604082019050919050565b6000612c1c602983613303565b9150612c27826138cc565b604082019050919050565b6000612c3f602e83613303565b9150612c4a8261391b565b604082019050919050565b6000612c62602083613303565b9150612c6d8261396a565b602082019050919050565b6000612c85603183613303565b9150612c9082613993565b604082019050919050565b6000612ca8602c83613303565b9150612cb3826139e2565b604082019050919050565b6000612ccb602983613303565b9150612cd682613a31565b604082019050919050565b6000612cee602f83613303565b9150612cf982613a80565b604082019050919050565b6000612d11602183613303565b9150612d1c82613acf565b604082019050919050565b6000612d34603183613303565b9150612d3f82613b1e565b604082019050919050565b6000612d57602c83613303565b9150612d6282613b6d565b604082019050919050565b6000604083016000830151612d856000860182612daa565b5060208301518482036020860152612d9d8282612a31565b9150508091505092915050565b612db381613444565b82525050565b612dc281613444565b82525050565b6000612dd48285612aa3565b9150612de08284612aa3565b91508190509392505050565b6000602082019050612e016000830184612907565b92915050565b6000608082019050612e1c6000830187612907565b612e296020830186612907565b612e366040830185612db9565b8181036060830152612e4881846129f8565b905095945050505050565b6000606082019050612e686000830186612907565b8181036020830152612e7a818561298b565b90508181036040830152612e8e8184612a6a565b9050949350505050565b6000606082019050612ead6000830186612907565b612eba6020830185612db9565b8181036040830152612ecc8184612a6a565b9050949350505050565b60006020820190508181036000830152612ef08184612916565b905092915050565b60006020820190508181036000830152612f12818461298b565b905092915050565b6000602082019050612f2f60008301846129e9565b92915050565b60006020820190508181036000830152612f4f8184612a6a565b905092915050565b60006020820190508181036000830152612f7081612ad4565b9050919050565b60006020820190508181036000830152612f9081612af7565b9050919050565b60006020820190508181036000830152612fb081612b1a565b9050919050565b60006020820190508181036000830152612fd081612b3d565b9050919050565b60006020820190508181036000830152612ff081612b60565b9050919050565b6000602082019050818103600083015261301081612b83565b9050919050565b6000602082019050818103600083015261303081612ba6565b9050919050565b6000602082019050818103600083015261305081612bc9565b9050919050565b6000602082019050818103600083015261307081612bec565b9050919050565b6000602082019050818103600083015261309081612c0f565b9050919050565b600060208201905081810360008301526130b081612c32565b9050919050565b600060208201905081810360008301526130d081612c55565b9050919050565b600060208201905081810360008301526130f081612c78565b9050919050565b6000602082019050818103600083015261311081612c9b565b9050919050565b6000602082019050818103600083015261313081612cbe565b9050919050565b6000602082019050818103600083015261315081612ce1565b9050919050565b6000602082019050818103600083015261317081612d04565b9050919050565b6000602082019050818103600083015261319081612d27565b9050919050565b600060208201905081810360008301526131b081612d4a565b9050919050565b60006020820190506131cc6000830184612db9565b92915050565b60006131dc6131ed565b90506131e882826134d2565b919050565b6000604051905090565b600067ffffffffffffffff82111561321257613211613637565b5b61321b82613666565b9050602081019050919050565b600067ffffffffffffffff82111561324357613242613637565b5b61324c82613666565b9050602081019050919050565b6000819050602082019050919050565b6000819050602082019050919050565b600081519050919050565b600081519050919050565b600081519050919050565b600081519050919050565b6000602082019050919050565b6000602082019050919050565b600082825260208201905092915050565b600082825260208201905092915050565b600082825260208201905092915050565b600082825260208201905092915050565b600082825260208201905092915050565b600081905092915050565b600061332a82613444565b915061333583613444565b9250827fffffffffffffffffffffffffffffffffffffffffffffffffffffffffffffffff0382111561336a576133696135aa565b5b828201905092915050565b600061338082613444565b915061338b83613444565b92508261339b5761339a6135d9565b5b828204905092915050565b60006133b182613444565b91506133bc83613444565b9250828210156133cf576133ce6135aa565b5b828203905092915050565b60006133e582613424565b9050919050565b60008115159050919050565b60007fffffffff0000000000000000000000000000000000000000000000000000000082169050919050565b600073ffffffffffffffffffffffffffffffffffffffff82169050919050565b6000819050919050565b600063ffffffff82169050919050565b82818337600083830152505050565b60005b8381101561348b578082015181840152602081019050613470565b8381111561349a576000848401525b50505050565b600060028204905060018216806134b857607f821691505b602082108114156134cc576134cb613608565b5b50919050565b6134db82613666565b810181811067ffffffffffffffff821117156134fa576134f9613637565b5b80604052505050565b600061350e82613444565b91507fffffffffffffffffffffffffffffffffffffffffffffffffffffffffffffffff821415613541576135406135aa565b5b600182019050919050565b60006135578261344e565b915063ffffffff82141561356e5761356d6135aa565b5b600182019050919050565b600061358482613444565b915061358f83613444565b92508261359f5761359e6135d9565b5b828206905092915050565b7f4e487b7100000000000000000000000000000000000000000000000000000000600052601160045260246000fd5b7f4e487b7100000000000000000000000000000000000000000000000000000000600052601260045260246000fd5b7f4e487b7100000000000000000000000000000000000000000000000000000000600052602260045260246000fd5b7f4e487b7100000000000000000000000000000000000000000000000000000000600052604160045260246000fd5b6000601f19601f8301169050919050565b7f455243373231456e756d657261626c653a206f776e657220696e646578206f7560008201527f74206f6620626f756e6473000000000000000000000000000000000000000000602082015250565b7f4552433732313a207472616e7366657220746f206e6f6e20455243373231526560008201527f63656976657220696d706c656d656e7465720000000000000000000000000000602082015250565b7f4552433732313a20746f6b656e20616c7265616479206d696e74656400000000600082015250565b7f4552433732313a207472616e7366657220746f20746865207a65726f2061646460008201527f7265737300000000000000000000000000000000000000000000000000000000602082015250565b7f4552433732313a20617070726f766520746f2063616c6c657200000000000000600082015250565b7f537570706c79206d7573742067726561746572207468616e2030000000000000600082015250565b7f4552433732313a206f70657261746f7220717565727920666f72206e6f6e657860008201527f697374656e7420746f6b656e0000000000000000000000000000000000000000602082015250565b7f4552433732313a20617070726f76652063616c6c6572206973206e6f74206f7760008201527f6e6572206e6f7220617070726f76656420666f7220616c6c0000000000000000602082015250565b7f4552433732313a2062616c616e636520717565727920666f7220746865207a6560008201527f726f206164647265737300000000000000000000000000000000000000000000602082015250565b7f4552433732313a206f776e657220717565727920666f72206e6f6e657869737460008201527f656e7420746f6b656e0000000000000000000000000000000000000000000000602082015250565b7f45524337323155524953746f726167653a2055524920736574206f66206e6f6e60008201527f6578697374656e7420746f6b656e000000000000000000000000000000000000602082015250565b7f4552433732313a206d696e7420746f20746865207a65726f2061646472657373600082015250565b7f45524337323155524953746f726167653a2055524920717565727920666f722060008201527f6e6f6e6578697374656e7420746f6b656e000000000000000000000000000000602082015250565b7f4552433732313a20617070726f76656420717565727920666f72206e6f6e657860008201527f697374656e7420746f6b656e0000000000000000000000000000000000000000602082015250565b7f4552433732313a207472616e73666572206f6620746f6b656e2074686174206960008201527f73206e6f74206f776e0000000000000000000000000000000000000000000000602082015250565b7f4552433732314d657461646174613a2055524920717565727920666f72206e6f60008201527f6e6578697374656e7420746f6b656e0000000000000000000000000000000000602082015250565b7f4552433732313a20617070726f76616c20746f2063757272656e74206f776e6560008201527f7200000000000000000000000000000000000000000000000000000000000000602082015250565b7f4552433732313a207472616e736665722063616c6c6572206973206e6f74206f60008201527f776e6572206e6f7220617070726f766564000000000000000000000000000000602082015250565b7f455243373231456e756d657261626c653a20676c6f62616c20696e646578206f60008201527f7574206f6620626f756e64730000000000000000000000000000000000000000602082015250565b613bc5816133da565b8114613bd057600080fd5b50565b613bdc816133ec565b8114613be757600080fd5b50565b613bf3816133f8565b8114613bfe57600080fd5b50565b613c0a81613444565b8114613c1557600080fd5b5056fea264697066735822122091635197268031eb9c4213253a4a78d8546aa976ea905f8775b6c856160d69a764736f6c63430008040033",
  "linkReferences": {},
  "deployedLinkReferences": {}
}