{
  "_format": "hh-sol-artifact-1",
  "contractName": "NFTMarketplace",
  "sourceName": "contracts/NFTMarketplace.sol",
  "abi": [
    {
      "inputs": [
        {
          "internalType": "address",
          "name": "marketAddress",
          "type": "address"
        }
      ],
      "stateMutability": "nonpayable",
      "type": "constructor"
    },
    {
      "anonymous": false,
      "inputs": [
        {
          "indexed": false,
          "internalType": "bytes32",
          "name": "id",
          "type": "bytes32"
        },
        {
          "indexed": true,
          "internalType": "uint256",
          "name": "assetId",
          "type": "uint256"
        },
        {
          "indexed": true,
          "internalType": "address",
          "name": "seller",
          "type": "address"
        },
        {
          "indexed": false,
          "internalType": "address",
          "name": "nftAddress",
          "type": "address"
        }
      ],
      "name": "OrderCancelled",
      "type": "event"
    },
    {
      "anonymous": false,
      "inputs": [
        {
          "indexed": false,
          "internalType": "bytes32",
          "name": "id",
          "type": "bytes32"
        },
        {
          "indexed": true,
          "internalType": "uint256",
          "name": "assetId",
          "type": "uint256"
        },
        {
          "indexed": true,
          "internalType": "address",
          "name": "seller",
          "type": "address"
        },
        {
          "indexed": false,
          "internalType": "address",
          "name": "nftAddress",
          "type": "address"
        },
        {
          "indexed": false,
          "internalType": "uint256",
          "name": "priceAsset",
          "type": "uint256"
        }
      ],
      "name": "OrderCreated",
      "type": "event"
    },
    {
      "anonymous": false,
      "inputs": [
        {
          "indexed": false,
          "internalType": "bytes32",
          "name": "id",
          "type": "bytes32"
        },
        {
          "indexed": true,
          "internalType": "uint256",
          "name": "assetId",
          "type": "uint256"
        },
        {
          "indexed": true,
          "internalType": "address",
          "name": "seller",
          "type": "address"
        },
        {
          "indexed": false,
          "internalType": "address",
          "name": "nftAddress",
          "type": "address"
        },
        {
          "indexed": false,
          "internalType": "uint256",
          "name": "totalPrice",
          "type": "uint256"
        },
        {
          "indexed": true,
          "internalType": "address",
          "name": "buyer",
          "type": "address"
        }
      ],
      "name": "OrderSuccessful",
      "type": "event"
    },
    {
      "anonymous": false,
      "inputs": [
        {
          "indexed": true,
          "internalType": "address",
          "name": "previousOwner",
          "type": "address"
        },
        {
          "indexed": true,
          "internalType": "address",
          "name": "newOwner",
          "type": "address"
        }
      ],
      "name": "OwnershipTransferred",
      "type": "event"
    },
    {
      "inputs": [],
      "name": "admin",
      "outputs": [
        {
          "internalType": "address",
          "name": "",
          "type": "address"
        }
      ],
      "stateMutability": "view",
      "type": "function"
    },
    {
      "inputs": [
        {
          "internalType": "address",
          "name": "nftAddress",
          "type": "address"
        },
        {
          "internalType": "uint256[]",
          "name": "assetIds",
          "type": "uint256[]"
        },
        {
          "internalType": "uint256",
          "name": "priceAsset",
          "type": "uint256"
        }
      ],
      "name": "batchCreateOrder",
      "outputs": [],
      "stateMutability": "nonpayable",
      "type": "function"
    },
    {
      "inputs": [
        {
          "internalType": "address",
          "name": "nftAddress",
          "type": "address"
        },
        {
          "internalType": "uint256",
          "name": "assetId",
          "type": "uint256"
        }
      ],
      "name": "cancelOrder",
      "outputs": [],
      "stateMutability": "nonpayable",
      "type": "function"
    },
    {
      "inputs": [
        {
          "internalType": "address",
          "name": "nftAddress",
          "type": "address"
        },
        {
          "internalType": "uint256",
          "name": "assetId",
          "type": "uint256"
        },
        {
          "internalType": "uint256",
          "name": "priceAsset",
          "type": "uint256"
        }
      ],
      "name": "createOrder",
      "outputs": [],
      "stateMutability": "nonpayable",
      "type": "function"
    },
    {
      "inputs": [
        {
          "internalType": "address",
          "name": "nftAddress",
          "type": "address"
        },
        {
          "internalType": "address",
          "name": "assetOwner",
          "type": "address"
        },
        {
          "internalType": "uint256",
          "name": "assetId",
          "type": "uint256"
        },
        {
          "internalType": "uint256",
          "name": "price",
          "type": "uint256"
        },
        {
          "internalType": "bytes",
          "name": "signature",
          "type": "bytes"
        }
      ],
      "name": "executeOrder",
      "outputs": [],
      "stateMutability": "payable",
      "type": "function"
    },
    {
      "inputs": [
        {
          "internalType": "address",
          "name": "",
          "type": "address"
        },
        {
          "internalType": "uint256",
          "name": "",
          "type": "uint256"
        },
        {
          "internalType": "address",
          "name": "",
          "type": "address"
        }
      ],
      "name": "orderByAssetId",
      "outputs": [
        {
          "internalType": "bytes32",
          "name": "id",
          "type": "bytes32"
        },
        {
          "internalType": "address",
          "name": "seller",
          "type": "address"
        },
        {
          "internalType": "address",
          "name": "nftAddress",
          "type": "address"
        },
        {
          "internalType": "uint256",
          "name": "priceAsset",
          "type": "uint256"
        }
      ],
      "stateMutability": "view",
      "type": "function"
    },
    {
      "inputs": [],
      "name": "owner",
      "outputs": [
        {
          "internalType": "address",
          "name": "",
          "type": "address"
        }
      ],
      "stateMutability": "view",
      "type": "function"
    },
    {
      "inputs": [],
      "name": "renounceOwnership",
      "outputs": [],
      "stateMutability": "nonpayable",
      "type": "function"
    },
    {
      "inputs": [
        {
          "internalType": "address",
          "name": "newOwner",
          "type": "address"
        }
      ],
      "name": "transferOwnership",
      "outputs": [],
      "stateMutability": "nonpayable",
      "type": "function"
    }
  ],
  "bytecode": "0x608060405234801561001057600080fd5b5060405161172038038061172083398101604081905261002f916100bf565b808061003a3361006f565b600180546001600160a01b039283166001600160a01b03199182161790915560028054939092169216919091179055506100ed565b600080546001600160a01b038381166001600160a01b0319831681178455604051919092169283917f8be0079c531659141344cd1fd0a4f28419497f9722a3daafe3b4186f6b6457e09190a35050565b6000602082840312156100d0578081fd5b81516001600160a01b03811681146100e6578182fd5b9392505050565b611624806100fc6000396000f3fe6080604052600436106100865760003560e01c80638da5cb5b116100595780638da5cb5b1461017a578063acfee8ed146101ac578063e03b8626146101cc578063f2fde38b146101df578063f851a440146101ff57600080fd5b80636a2061371461008b5780636ce23e2a146100ad578063715018a61461014557806389d1a4401461015a575b600080fd5b34801561009757600080fd5b506100ab6100a6366004611446565b61021f565b005b3480156100b957600080fd5b5061010c6100c8366004611471565b6003602081815260009485526040808620825293855283852090529083529120805460018201546002830154929093015490926001600160a01b0390811692169084565b60405161013c94939291909384526001600160a01b03928316602085015291166040830152606082015260800190565b60405180910390f35b34801561015157600080fd5b506100ab61022d565b34801561016657600080fd5b506100ab610175366004611381565b610298565b34801561018657600080fd5b506000546001600160a01b03165b6040516001600160a01b03909116815260200161013c565b3480156101b857600080fd5b506100ab6101c73660046114b2565b6103b0565b6100ab6101da3660046112b9565b6103c0565b3480156101eb57600080fd5b506100ab6101fa366004611281565b610907565b34801561020b57600080fd5b50600154610194906001600160a01b031681565b61022982826109d2565b5050565b6000546001600160a01b0316331461028c5760405162461bcd60e51b815260206004820181905260248201527f4f776e61626c653a2063616c6c6572206973206e6f7420746865206f776e657260448201526064015b60405180910390fd5b6102966000610b98565b565b60005b82518160ff1610156103aa576001600160a01b03841660009081526003602052604081208451339291908290879060ff87169081106102ea57634e487b7160e01b600052603260045260246000fd5b602090810291909101810151825281810192909252604090810160009081206001600160a01b038087168352908452908290208251608081018452815480825260018301548416958201959095526002820154909216928201929092526003909101546060820152915015610360575050610398565b61039586868560ff168151811061038757634e487b7160e01b600052603260045260246000fd5b602002602001015186610be8565b50505b806103a28161158d565b91505061029b565b50505050565b6103bb838383610be8565b505050565b6040516bffffffffffffffffffffffff19606087811b8216602084015286901b166034820152604881018490526068810183905260009061046790608801604051602081830303815290604052805190602001206040517f19457468657265756d205369676e6564204d6573736167653a0a3332000000006020820152603c8101829052600090605c01604051602081830303815290604052805190602001209050919050565b6001549091506001600160a01b0316610480828461103c565b6001600160a01b0316146104c85760405162461bcd60e51b815260206004820152600f60248201526e77726f6e67207369676e617475726560881b6044820152606401610283565b6104d1866110bb565b3334876001600160a01b03881661051c5760405162461bcd60e51b815260206004820152600f60248201526e496e76616c6964206164647265737360881b6044820152606401610283565b826001600160a01b0316886001600160a01b0316141561057e5760405162461bcd60e51b815260206004820152601f60248201527f4f776e65722063616e6e6f7420627579207468656972206f776e206974656d006044820152606401610283565b6001600160a01b03808a1660009081526003602081815260408084208c855282528084208d8616855282529283902083516080810185528154808252600183015487169382019390935260028201549095169385019390935291015460608301523484146106235760405162461bcd60e51b8152602060048201526012602482015271125b9d985b1a59081c185e48185b5bdd5b9d60721b6044820152606401610283565b8061066a5760405162461bcd60e51b8152602060048201526017602482015276105cdcd95d081bdc99195c881b9bdd0818dc99585d1959604a1b6044820152606401610283565b6040516331a9108f60e11b8152600481018a90526001600160a01b03841690636352211e9060240160206040518083038186803b1580156106aa57600080fd5b505afa1580156106be573d6000803e3d6000fd5b505050506040513d601f19601f820116820180604052508101906106e2919061129d565b6001600160a01b03168a6001600160a01b03161461074c5760405162461bcd60e51b815260206004820152602160248201527f5468652073656c6c6572206973206e6f206c6f6e67657220746865206f776e656044820152603960f91b6064820152608401610283565b6020808301516001600160a01b03808e166000908152600380855260408083208f845286528083209385168352929094529081208181556001810180546001600160a01b03199081169091556002820180549091169055909201829055906107b38661120b565b905060006107c1878361122e565b6040519091506001600160a01b0384169082156108fc029083906000818181858888f193505050501580156107fa573d6000803e3d6000fd5b506002546040516001600160a01b039091169083156108fc029084906000818181858888f19350505050158015610835573d6000803e3d6000fd5b50604051632142170760e11b81526001600160a01b0384811660048301528981166024830152604482018e90528716906342842e0e90606401600060405180830381600087803b15801561088857600080fd5b505af115801561089c573d6000803e3d6000fd5b50505060408087015181518781526001600160a01b0391821660208201529182018a9052808b1692508516908e907f695ec315e8a642a74d450a4505eeea53df699b47a7378c7d752e97d5b16eb9bb9060600160405180910390a45050505050505050505050505050565b6000546001600160a01b031633146109615760405162461bcd60e51b815260206004820181905260248201527f4f776e61626c653a2063616c6c6572206973206e6f7420746865206f776e65726044820152606401610283565b6001600160a01b0381166109c65760405162461bcd60e51b815260206004820152602660248201527f4f776e61626c653a206e6577206f776e657220697320746865207a65726f206160448201526564647265737360d01b6064820152608401610283565b6109cf81610b98565b50565b6001600160a01b03828116600090815260036020818152604080842086855282528084203380865290835293819020815160808101835281548082526001830154881694820194909452600282015490961691860191909152909101546060840152909190610a7d5760405162461bcd60e51b8152602060048201526017602482015276105cdcd95d081bdc99195c881b9bdd0818dc99585d1959604a1b6044820152606401610283565b816001600160a01b031681602001516001600160a01b03161480610aae57506000546001600160a01b038381169116145b610aee5760405162461bcd60e51b81526020600482015260116024820152702ab730baba3437b934bd32b2103ab9b2b960791b6044820152606401610283565b80516020808301516040808501516001600160a01b03898116600090815260038087528482208b835287528482208a8416835287528482208281556001810180546001600160a01b0319908116909155600282018054909116905501558251868152818316958101959095529293909284169188917f0325426328de5b91ae4ad8462ad4076de4bcaf4551e81556185cacde5a425c6b91015b60405180910390a350505050505050565b600080546001600160a01b038381166001600160a01b0319831681178455604051919092169283917f8be0079c531659141344cd1fd0a4f28419497f9722a3daafe3b4186f6b6457e09190a35050565b610bf1836110bb565b6040516331a9108f60e11b81526004810183905283906000906001600160a01b03831690636352211e9060240160206040518083038186803b158015610c3657600080fd5b505afa158015610c4a573d6000803e3d6000fd5b505050506040513d601f19601f82011682018060405250810190610c6e919061129d565b9050336001600160a01b0382168114610cc95760405162461bcd60e51b815260206004820181905260248201527f4f6e6c7920746865206f776e65722063616e20637265617465206f72646572736044820152606401610283565b60405163020604bf60e21b81526004810186905230906001600160a01b0385169063081812fc9060240160206040518083038186803b158015610d0b57600080fd5b505afa158015610d1f573d6000803e3d6000fd5b505050506040513d601f19601f82011682018060405250810190610d43919061129d565b6001600160a01b03161480610dd2575060405163e985e9c560e01b81526001600160a01b03838116600483015230602483015284169063e985e9c59060440160206040518083038186803b158015610d9a57600080fd5b505afa158015610dae573d6000803e3d6000fd5b505050506040513d601f19601f82011682018060405250810190610dd291906114e6565b610e395760405162461bcd60e51b815260206004820152603260248201527f54686520636f6e7472616374206973206e6f7420617574686f72697a656420746044820152711bc81b585b9859d9481d1a1948185cdcd95d60721b6064820152608401610283565b60008411610e895760405162461bcd60e51b815260206004820152601d60248201527f50726963652073686f756c6420626520626967676572207468616e20300000006044820152606401610283565b604080514260208201526bffffffffffffffffffffffff19606085811b821693830193909352605482018890529188901b90911660748201526088810185905260009060a8016040516020818303038152906040528051906020012090506040518060800160405280828152602001846001600160a01b03168152602001886001600160a01b031681526020018681525060036000896001600160a01b03166001600160a01b0316815260200190815260200160002060008881526020019081526020016000206000856001600160a01b03166001600160a01b031681526020019081526020016000206000820151816000015560208201518160010160006101000a8154816001600160a01b0302191690836001600160a01b0316021790555060408201518160020160006101000a8154816001600160a01b0302191690836001600160a01b0316021790555060608201518160030155905050826001600160a01b0316867f30d4639aaeab3d855645143b89e73f02a888a38520e63402edcaf9b27cabc93b838a89604051610b87939291909283526001600160a01b03919091166020830152604082015260600190565b60008060008061104b8561123a565b6040805160008152602081018083528b905260ff8516918101919091526060810183905260808101829052929550909350915060019060a0016020604051602081039080840390855afa1580156110a6573d6000803e3d6000fd5b5050604051601f190151979650505050505050565b6001600160a01b0381163b61111e5760405162461bcd60e51b8152602060048201526024808201527f546865204e465420416464726573732073686f756c64206265206120636f6e746044820152631c9858dd60e21b6064820152608401610283565b6040516301ffc9a760e01b81526380ac58cd60e01b600482018190529082906001600160a01b038216906301ffc9a79060240160206040518083038186803b15801561116957600080fd5b505afa15801561117d573d6000803e3d6000fd5b505050506040513d601f19601f820116820180604052508101906111a191906114e6565b6103bb5760405162461bcd60e51b815260206004820152603560248201527f546865204e465420636f6e74726163742068617320616e20696e76616c69642060448201527422a9219b99189034b6b83632b6b2b73a30ba34b7b760591b6064820152608401610283565b60008061121983600f611269565b9050611227816103e8611275565b9392505050565b60006112278284611576565b6000806000835160411461124d57600080fd5b5050506020810151604082015160609092015160001a92909190565b60006112278284611557565b60006112278284611537565b600060208284031215611292578081fd5b8135611227816115d9565b6000602082840312156112ae578081fd5b8151611227816115d9565b600080600080600060a086880312156112d0578081fd5b85356112db816115d9565b94506020868101356112ec816115d9565b94506040870135935060608701359250608087013567ffffffffffffffff80821115611316578384fd5b818901915089601f830112611329578384fd5b81358181111561133b5761133b6115c3565b61134d601f8201601f19168501611506565b91508082528a84828501011115611362578485fd5b8084840185840137810190920192909252949793965091945092919050565b600080600060608486031215611395578283fd5b83356113a0816115d9565b925060208481013567ffffffffffffffff808211156113bd578485fd5b818701915087601f8301126113d0578485fd5b8135818111156113e2576113e26115c3565b8060051b91506113f3848301611506565b8181528481019084860184860187018c101561140d578889fd5b8895505b8386101561142f578035835260019590950194918601918601611411565b50979a979950505050604095909501359450505050565b60008060408385031215611458578182fd5b8235611463816115d9565b946020939093013593505050565b600080600060608486031215611485578283fd5b8335611490816115d9565b92506020840135915060408401356114a7816115d9565b809150509250925092565b6000806000606084860312156114c6578283fd5b83356114d1816115d9565b95602085013595506040909401359392505050565b6000602082840312156114f7578081fd5b81518015158114611227578182fd5b604051601f8201601f1916810167ffffffffffffffff8111828210171561152f5761152f6115c3565b604052919050565b60008261155257634e487b7160e01b81526012600452602481fd5b500490565b6000816000190483118215151615611571576115716115ad565b500290565b600082821015611588576115886115ad565b500390565b600060ff821660ff8114156115a4576115a46115ad565b60010192915050565b634e487b7160e01b600052601160045260246000fd5b634e487b7160e01b600052604160045260246000fd5b6001600160a01b03811681146109cf57600080fdfea26469706673582212207e018f07ac630451a2833b5f297034fe06a598dfd8fb50e1e85f5510e2b4f3ce64736f6c63430008040033",
  "linkReferences": {},
  "deployedLinkReferences": {}
}