{
  "contractName": "GFX",
  "abi": [
    {
      "inputs": [
        {
          "internalType": "address",
          "name": "_fouding",
          "type": "address"
        },
        {
          "internalType": "address",
          "name": "_investing",
          "type": "address"
        },
        {
          "internalType": "address",
          "name": "_marketing",
          "type": "address"
        },
        {
          "internalType": "address",
          "name": "_airdrop",
          "type": "address"
        }
      ],
      "stateMutability": "nonpayable",
      "type": "constructor"
    },
    {
      "anonymous": false,
      "inputs": [
        {
          "indexed": true,
          "internalType": "address",
          "name": "owner",
          "type": "address"
        },
        {
          "indexed": true,
          "internalType": "address",
          "name": "spender",
          "type": "address"
        },
        {
          "indexed": false,
          "internalType": "uint256",
          "name": "value",
          "type": "uint256"
        }
      ],
      "name": "Approval",
      "type": "event"
    },
    {
      "anonymous": false,
      "inputs": [
        {
          "indexed": true,
          "internalType": "address",
          "name": "previousOwner",
          "type": "address"
        },
        {
          "indexed": true,
          "internalType": "address",
          "name": "newOwner",
          "type": "address"
        }
      ],
      "name": "OwnershipTransferred",
      "type": "event"
    },
    {
      "anonymous": false,
      "inputs": [
        {
          "indexed": true,
          "internalType": "address",
          "name": "from",
          "type": "address"
        },
        {
          "indexed": true,
          "internalType": "address",
          "name": "to",
          "type": "address"
        },
        {
          "indexed": false,
          "internalType": "uint256",
          "name": "value",
          "type": "uint256"
        }
      ],
      "name": "Transfer",
      "type": "event"
    },
    {
      "inputs": [],
      "name": "AIRDROP",
      "outputs": [
        {
          "internalType": "uint256",
          "name": "",
          "type": "uint256"
        }
      ],
      "stateMutability": "view",
      "type": "function"
    },
    {
      "inputs": [],
      "name": "FOUDING",
      "outputs": [
        {
          "internalType": "uint256",
          "name": "",
          "type": "uint256"
        }
      ],
      "stateMutability": "view",
      "type": "function"
    },
    {
      "inputs": [],
      "name": "INVESTOR",
      "outputs": [
        {
          "internalType": "uint256",
          "name": "",
          "type": "uint256"
        }
      ],
      "stateMutability": "view",
      "type": "function"
    },
    {
      "inputs": [],
      "name": "MARKETING",
      "outputs": [
        {
          "internalType": "uint256",
          "name": "",
          "type": "uint256"
        }
      ],
      "stateMutability": "view",
      "type": "function"
    },
    {
      "inputs": [],
      "name": "MAX_SUPPLY",
      "outputs": [
        {
          "internalType": "uint256",
          "name": "",
          "type": "uint256"
        }
      ],
      "stateMutability": "view",
      "type": "function"
    },
    {
      "inputs": [],
      "name": "MINING",
      "outputs": [
        {
          "internalType": "uint256",
          "name": "",
          "type": "uint256"
        }
      ],
      "stateMutability": "view",
      "type": "function"
    },
    {
      "inputs": [
        {
          "internalType": "address",
          "name": "owner",
          "type": "address"
        },
        {
          "internalType": "address",
          "name": "spender",
          "type": "address"
        }
      ],
      "name": "allowance",
      "outputs": [
        {
          "internalType": "uint256",
          "name": "",
          "type": "uint256"
        }
      ],
      "stateMutability": "view",
      "type": "function"
    },
    {
      "inputs": [
        {
          "internalType": "address",
          "name": "spender",
          "type": "address"
        },
        {
          "internalType": "uint256",
          "name": "amount",
          "type": "uint256"
        }
      ],
      "name": "approve",
      "outputs": [
        {
          "internalType": "bool",
          "name": "",
          "type": "bool"
        }
      ],
      "stateMutability": "nonpayable",
      "type": "function"
    },
    {
      "inputs": [
        {
          "internalType": "address",
          "name": "account",
          "type": "address"
        }
      ],
      "name": "balanceOf",
      "outputs": [
        {
          "internalType": "uint256",
          "name": "",
          "type": "uint256"
        }
      ],
      "stateMutability": "view",
      "type": "function"
    },
    {
      "inputs": [],
      "name": "decimals",
      "outputs": [
        {
          "internalType": "uint8",
          "name": "",
          "type": "uint8"
        }
      ],
      "stateMutability": "view",
      "type": "function"
    },
    {
      "inputs": [
        {
          "internalType": "address",
          "name": "spender",
          "type": "address"
        },
        {
          "internalType": "uint256",
          "name": "subtractedValue",
          "type": "uint256"
        }
      ],
      "name": "decreaseAllowance",
      "outputs": [
        {
          "internalType": "bool",
          "name": "",
          "type": "bool"
        }
      ],
      "stateMutability": "nonpayable",
      "type": "function"
    },
    {
      "inputs": [],
      "name": "foudingUnlocked",
      "outputs": [
        {
          "internalType": "uint256",
          "name": "",
          "type": "uint256"
        }
      ],
      "stateMutability": "view",
      "type": "function"
    },
    {
      "inputs": [],
      "name": "getOwner",
      "outputs": [
        {
          "internalType": "address",
          "name": "",
          "type": "address"
        }
      ],
      "stateMutability": "view",
      "type": "function"
    },
    {
      "inputs": [
        {
          "internalType": "address",
          "name": "spender",
          "type": "address"
        },
        {
          "internalType": "uint256",
          "name": "addedValue",
          "type": "uint256"
        }
      ],
      "name": "increaseAllowance",
      "outputs": [
        {
          "internalType": "bool",
          "name": "",
          "type": "bool"
        }
      ],
      "stateMutability": "nonpayable",
      "type": "function"
    },
    {
      "inputs": [],
      "name": "initTimeFouding",
      "outputs": [
        {
          "internalType": "uint256",
          "name": "",
          "type": "uint256"
        }
      ],
      "stateMutability": "view",
      "type": "function"
    },
    {
      "inputs": [],
      "name": "initTimeInvestor",
      "outputs": [
        {
          "internalType": "uint256",
          "name": "",
          "type": "uint256"
        }
      ],
      "stateMutability": "view",
      "type": "function"
    },
    {
      "inputs": [],
      "name": "investorUnlocked",
      "outputs": [
        {
          "internalType": "uint256",
          "name": "",
          "type": "uint256"
        }
      ],
      "stateMutability": "view",
      "type": "function"
    },
    {
      "inputs": [],
      "name": "marketingUnlocked",
      "outputs": [
        {
          "internalType": "uint256",
          "name": "",
          "type": "uint256"
        }
      ],
      "stateMutability": "view",
      "type": "function"
    },
    {
      "inputs": [],
      "name": "name",
      "outputs": [
        {
          "internalType": "string",
          "name": "",
          "type": "string"
        }
      ],
      "stateMutability": "view",
      "type": "function"
    },
    {
      "inputs": [],
      "name": "owner",
      "outputs": [
        {
          "internalType": "address",
          "name": "",
          "type": "address"
        }
      ],
      "stateMutability": "view",
      "type": "function"
    },
    {
      "inputs": [],
      "name": "renounceOwnership",
      "outputs": [],
      "stateMutability": "nonpayable",
      "type": "function"
    },
    {
      "inputs": [],
      "name": "symbol",
      "outputs": [
        {
          "internalType": "string",
          "name": "",
          "type": "string"
        }
      ],
      "stateMutability": "view",
      "type": "function"
    },
    {
      "inputs": [],
      "name": "tokenAirdrop",
      "outputs": [
        {
          "internalType": "address",
          "name": "",
          "type": "address"
        }
      ],
      "stateMutability": "view",
      "type": "function"
    },
    {
      "inputs": [],
      "name": "tokenFouding",
      "outputs": [
        {
          "internalType": "address",
          "name": "",
          "type": "address"
        }
      ],
      "stateMutability": "view",
      "type": "function"
    },
    {
      "inputs": [],
      "name": "tokenInvestor",
      "outputs": [
        {
          "internalType": "address",
          "name": "",
          "type": "address"
        }
      ],
      "stateMutability": "view",
      "type": "function"
    },
    {
      "inputs": [],
      "name": "tokenMarketing",
      "outputs": [
        {
          "internalType": "address",
          "name": "",
          "type": "address"
        }
      ],
      "stateMutability": "view",
      "type": "function"
    },
    {
      "inputs": [],
      "name": "totalMiningunlock",
      "outputs": [
        {
          "internalType": "uint256",
          "name": "",
          "type": "uint256"
        }
      ],
      "stateMutability": "view",
      "type": "function"
    },
    {
      "inputs": [],
      "name": "totalSupply",
      "outputs": [
        {
          "internalType": "uint256",
          "name": "",
          "type": "uint256"
        }
      ],
      "stateMutability": "view",
      "type": "function"
    },
    {
      "inputs": [
        {
          "internalType": "address",
          "name": "recipient",
          "type": "address"
        },
        {
          "internalType": "uint256",
          "name": "amount",
          "type": "uint256"
        }
      ],
      "name": "transfer",
      "outputs": [
        {
          "internalType": "bool",
          "name": "",
          "type": "bool"
        }
      ],
      "stateMutability": "nonpayable",
      "type": "function"
    },
    {
      "inputs": [
        {
          "internalType": "address",
          "name": "sender",
          "type": "address"
        },
        {
          "internalType": "address",
          "name": "recipient",
          "type": "address"
        },
        {
          "internalType": "uint256",
          "name": "amount",
          "type": "uint256"
        }
      ],
      "name": "transferFrom",
      "outputs": [
        {
          "internalType": "bool",
          "name": "",
          "type": "bool"
        }
      ],
      "stateMutability": "nonpayable",
      "type": "function"
    },
    {
      "inputs": [
        {
          "internalType": "address",
          "name": "newOwner",
          "type": "address"
        }
      ],
      "name": "transferOwnership",
      "outputs": [],
      "stateMutability": "nonpayable",
      "type": "function"
    },
    {
      "inputs": [],
      "name": "txFeePerThousand",
      "outputs": [
        {
          "internalType": "uint256",
          "name": "",
          "type": "uint256"
        }
      ],
      "stateMutability": "view",
      "type": "function"
    },
    {
      "inputs": [
        {
          "internalType": "address",
          "name": "",
          "type": "address"
        }
      ],
      "name": "whitelist",
      "outputs": [
        {
          "internalType": "bool",
          "name": "",
          "type": "bool"
        }
      ],
      "stateMutability": "view",
      "type": "function"
    },
    {
      "inputs": [
        {
          "internalType": "address",
          "name": "",
          "type": "address"
        }
      ],
      "name": "whitelistRecipient",
      "outputs": [
        {
          "internalType": "bool",
          "name": "",
          "type": "bool"
        }
      ],
      "stateMutability": "view",
      "type": "function"
    },
    {
      "inputs": [],
      "name": "releasableInvestor",
      "outputs": [
        {
          "internalType": "uint256",
          "name": "",
          "type": "uint256"
        }
      ],
      "stateMutability": "view",
      "type": "function"
    },
    {
      "inputs": [],
      "name": "releasableFouding",
      "outputs": [
        {
          "internalType": "uint256",
          "name": "",
          "type": "uint256"
        }
      ],
      "stateMutability": "view",
      "type": "function"
    },
    {
      "inputs": [],
      "name": "releasableMining",
      "outputs": [
        {
          "internalType": "uint256",
          "name": "",
          "type": "uint256"
        }
      ],
      "stateMutability": "view",
      "type": "function"
    },
    {
      "inputs": [],
      "name": "releaseFouding",
      "outputs": [],
      "stateMutability": "nonpayable",
      "type": "function"
    },
    {
      "inputs": [],
      "name": "releaseInvestor",
      "outputs": [],
      "stateMutability": "nonpayable",
      "type": "function"
    },
    {
      "inputs": [
        {
          "internalType": "uint256",
          "name": "_fee",
          "type": "uint256"
        }
      ],
      "name": "setFeePerThousand",
      "outputs": [],
      "stateMutability": "nonpayable",
      "type": "function"
    },
    {
      "inputs": [
        {
          "internalType": "address",
          "name": "_addr",
          "type": "address"
        },
        {
          "internalType": "bool",
          "name": "_val",
          "type": "bool"
        }
      ],
      "name": "setWhitelist",
      "outputs": [],
      "stateMutability": "nonpayable",
      "type": "function"
    },
    {
      "inputs": [
        {
          "internalType": "address",
          "name": "_addr",
          "type": "address"
        },
        {
          "internalType": "bool",
          "name": "_val",
          "type": "bool"
        }
      ],
      "name": "setlistRecipient",
      "outputs": [],
      "stateMutability": "nonpayable",
      "type": "function"
    },
    {
      "inputs": [
        {
          "internalType": "address",
          "name": "recipient",
          "type": "address"
        },
        {
          "internalType": "uint256",
          "name": "amount",
          "type": "uint256"
        }
      ],
      "name": "miningToken",
      "outputs": [
        {
          "internalType": "bool",
          "name": "success",
          "type": "bool"
        }
      ],
      "stateMutability": "nonpayable",
      "type": "function"
    },
    {
      "inputs": [
        {
          "internalType": "address",
          "name": "sender",
          "type": "address"
        },
        {
          "internalType": "address",
          "name": "recipient",
          "type": "address"
        }
      ],
      "name": "shouldHaveFee",
      "outputs": [
        {
          "internalType": "bool",
          "name": "",
          "type": "bool"
        }
      ],
      "stateMutability": "view",
      "type": "function"
    },
    {
      "inputs": [
        {
          "internalType": "address",
          "name": "sender",
          "type": "address"
        },
        {
          "internalType": "address",
          "name": "recipient",
          "type": "address"
        },
        {
          "internalType": "uint256",
          "name": "amount",
          "type": "uint256"
        }
      ],
      "name": "computeTxFee",
      "outputs": [
        {
          "internalType": "uint256",
          "name": "",
          "type": "uint256"
        },
        {
          "internalType": "uint256",
          "name": "",
          "type": "uint256"
        }
      ],
      "stateMutability": "view",
      "type": "function"
    },
    {
      "inputs": [],
      "name": "balance",
      "outputs": [
        {
          "internalType": "uint256",
          "name": "",
          "type": "uint256"
        }
      ],
      "stateMutability": "view",
      "type": "function"
    },
    {
      "inputs": [
        {
          "internalType": "uint256",
          "name": "amount",
          "type": "uint256"
        }
      ],
      "name": "_burnToken",
      "outputs": [
        {
          "internalType": "bool",
          "name": "success",
          "type": "bool"
        }
      ],
      "stateMutability": "nonpayable",
      "type": "function"
    }
  ],
  "bytecode": "0x60806040526000600d556000600e556000600f5560006010556001601160006101000a81548160ff0219169083151502179055506001601160016101000a81548160ff02191690831515021790555060006012553480156200006057600080fd5b506040516200477b3803806200477b833981810160405281019062000086919062000d7f565b6040518060400160405280600581526020017f476f666f780000000000000000000000000000000000000000000000000000008152506040518060400160405280600381526020017f47465800000000000000000000000000000000000000000000000000000000008152506000620001046200021060201b60201c565b9050806000806101000a81548173ffffffffffffffffffffffffffffffffffffffff021916908373ffffffffffffffffffffffffffffffffffffffff1602179055508073ffffffffffffffffffffffffffffffffffffffff16600073ffffffffffffffffffffffffffffffffffffffff167f8be0079c531659141344cd1fd0a4f28419497f9722a3daafe3b4186f6b6457e060405160405180910390a3508160049080519060200190620001ba92919062000cb8565b508060059080519060200190620001d392919062000cb8565b506012600660006101000a81548160ff021916908360ff160217905550505062000206848484846200021860201b60201c565b5050505062001456565b600033905090565b620002366301da9c00426200045f60201b62001c641790919060201c565b6007819055506200025a6303b53800426200045f60201b62001c641790919060201c565b60088190555082600960006101000a81548173ffffffffffffffffffffffffffffffffffffffff021916908373ffffffffffffffffffffffffffffffffffffffff16021790555083600a60006101000a81548173ffffffffffffffffffffffffffffffffffffffff021916908373ffffffffffffffffffffffffffffffffffffffff16021790555080600c60006101000a81548173ffffffffffffffffffffffffffffffffffffffff021916908373ffffffffffffffffffffffffffffffffffffffff16021790555081600b60006101000a81548173ffffffffffffffffffffffffffffffffffffffff021916908373ffffffffffffffffffffffffffffffffffffffff1602179055506001601360003073ffffffffffffffffffffffffffffffffffffffff1673ffffffffffffffffffffffffffffffffffffffff16815260200190815260200160002060006101000a81548160ff021916908315150217905550620003d9306a52b7d2dcc80cd2e4000000620004c260201b60201c565b6200041930600c60009054906101000a900473ffffffffffffffffffffffffffffffffffffffff166a084595161401484a0000006200065f60201b60201c565b6200045930600b60009054906101000a900473ffffffffffffffffffffffffffffffffffffffff166a0422ca8b0a00a4250000006200065f60201b60201c565b50505050565b600080828462000470919062001056565b905083811015620004b8576040517f08c379a0000000000000000000000000000000000000000000000000000000008152600401620004af9062000f51565b60405180910390fd5b8091505092915050565b600073ffffffffffffffffffffffffffffffffffffffff168273ffffffffffffffffffffffffffffffffffffffff16141562000535576040517f08c379a00000000000000000000000000000000000000000000000000000000081526004016200052c9062000ffb565b60405180910390fd5b62000551816003546200045f60201b62001c641790919060201c565b600381905550620005b081600160008573ffffffffffffffffffffffffffffffffffffffff1673ffffffffffffffffffffffffffffffffffffffff168152602001908152602001600020546200045f60201b62001c641790919060201c565b600160008473ffffffffffffffffffffffffffffffffffffffff1673ffffffffffffffffffffffffffffffffffffffff168152602001908152602001600020819055508173ffffffffffffffffffffffffffffffffffffffff16600073ffffffffffffffffffffffffffffffffffffffff167fddf252ad1be2c89b69c2b068fc378daa952ba7f163c4a11628f55a4df523b3ef836040516200065391906200101d565b60405180910390a35050565b600073ffffffffffffffffffffffffffffffffffffffff168373ffffffffffffffffffffffffffffffffffffffff161415620006d2576040517f08c379a0000000000000000000000000000000000000000000000000000000008152600401620006c99062000f73565b60405180910390fd5b600073ffffffffffffffffffffffffffffffffffffffff168273ffffffffffffffffffffffffffffffffffffffff16141562000745576040517f08c379a00000000000000000000000000000000000000000000000000000000081526004016200073c9062000f95565b60405180910390fd5b620007588383836200099160201b60201c565b620007cc816040518060600160405280602681526020016200475560269139600160008773ffffffffffffffffffffffffffffffffffffffff1673ffffffffffffffffffffffffffffffffffffffff168152602001908152602001600020546200099660201b62001cc2179092919060201c565b600160008573ffffffffffffffffffffffffffffffffffffffff1673ffffffffffffffffffffffffffffffffffffffff1681526020019081526020016000208190555060008062000825858585620009ff60201b60201c565b91509150826200084482846200045f60201b62001c641790919060201c565b1462000887576040517f08c379a00000000000000000000000000000000000000000000000000000000081526004016200087e9062000fd9565b60405180910390fd5b620008e081600160008773ffffffffffffffffffffffffffffffffffffffff1673ffffffffffffffffffffffffffffffffffffffff168152602001908152602001600020546200045f60201b62001c641790919060201c565b600160008673ffffffffffffffffffffffffffffffffffffffff1673ffffffffffffffffffffffffffffffffffffffff168152602001908152602001600020819055508373ffffffffffffffffffffffffffffffffffffffff168573ffffffffffffffffffffffffffffffffffffffff167fddf252ad1be2c89b69c2b068fc378daa952ba7f163c4a11628f55a4df523b3ef836040516200098291906200101d565b60405180910390a35050505050565b505050565b6000838311158290620009e1576040517f08c379a0000000000000000000000000000000000000000000000000000000008152600401620009d8919062000f2d565b60405180910390fd5b5060008385620009f291906200114c565b9050809150509392505050565b600080600080849050601360008873ffffffffffffffffffffffffffffffffffffffff1673ffffffffffffffffffffffffffffffffffffffff16815260200190815260200160002060009054906101000a900460ff1615801562000aad5750601460008773ffffffffffffffffffffffffffffffffffffffff1673ffffffffffffffffffffffffffffffffffffffff16815260200190815260200160002060009054906101000a900460ff16155b801562000abc57506000601254115b1562000b185762000af96103e862000ae56012548862000b2860201b62001d261790919060201c565b62000bac60201b62001da11790919060201c565b915062000b15828662000bfe60201b62001deb1790919060201c565b90505b8181935093505050935093915050565b60008083141562000b3d576000905062000ba6565b6000828462000b4d9190620010eb565b905082848262000b5e9190620010b3565b1462000ba1576040517f08c379a000000000000000000000000000000000000000000000000000000000815260040162000b989062000fb7565b60405180910390fd5b809150505b92915050565b600062000bf683836040518060400160405280601a81526020017f536166654d6174683a206469766973696f6e206279207a65726f00000000000081525062000c5060201b60201c565b905092915050565b600062000c4883836040518060400160405280601e81526020017f536166654d6174683a207375627472616374696f6e206f766572666c6f7700008152506200099660201b60201c565b905092915050565b6000808311829062000c9a576040517f08c379a000000000000000000000000000000000000000000000000000000000815260040162000c91919062000f2d565b60405180910390fd5b506000838562000cab9190620010b3565b9050809150509392505050565b82805462000cc690620011fb565b90600052602060002090601f01602090048101928262000cea576000855562000d36565b82601f1062000d0557805160ff191683800117855562000d36565b8280016001018555821562000d36579182015b8281111562000d3557825182559160200191906001019062000d18565b5b50905062000d45919062000d49565b5090565b5b8082111562000d6457600081600090555060010162000d4a565b5090565b60008151905062000d79816200143c565b92915050565b6000806000806080858703121562000d9c5762000d9b620012be565b5b600062000dac8782880162000d68565b945050602062000dbf8782880162000d68565b935050604062000dd28782880162000d68565b925050606062000de58782880162000d68565b91505092959194509250565b600062000dfe826200103a565b62000e0a818562001045565b935062000e1c818560208601620011c5565b62000e2781620012c3565b840191505092915050565b600062000e41601b8362001045565b915062000e4e82620012d4565b602082019050919050565b600062000e6860258362001045565b915062000e7582620012fd565b604082019050919050565b600062000e8f60238362001045565b915062000e9c826200134c565b604082019050919050565b600062000eb660218362001045565b915062000ec3826200139b565b604082019050919050565b600062000edd60148362001045565b915062000eea82620013ea565b602082019050919050565b600062000f04601f8362001045565b915062000f118262001413565b602082019050919050565b62000f2781620011bb565b82525050565b6000602082019050818103600083015262000f49818462000df1565b905092915050565b6000602082019050818103600083015262000f6c8162000e32565b9050919050565b6000602082019050818103600083015262000f8e8162000e59565b9050919050565b6000602082019050818103600083015262000fb08162000e80565b9050919050565b6000602082019050818103600083015262000fd28162000ea7565b9050919050565b6000602082019050818103600083015262000ff48162000ece565b9050919050565b60006020820190508181036000830152620010168162000ef5565b9050919050565b600060208201905062001034600083018462000f1c565b92915050565b600081519050919050565b600082825260208201905092915050565b60006200106382620011bb565b91506200107083620011bb565b9250827fffffffffffffffffffffffffffffffffffffffffffffffffffffffffffffffff03821115620010a857620010a762001231565b5b828201905092915050565b6000620010c082620011bb565b9150620010cd83620011bb565b925082620010e057620010df62001260565b5b828204905092915050565b6000620010f882620011bb565b91506200110583620011bb565b9250817fffffffffffffffffffffffffffffffffffffffffffffffffffffffffffffffff048311821515161562001141576200114062001231565b5b828202905092915050565b60006200115982620011bb565b91506200116683620011bb565b9250828210156200117c576200117b62001231565b5b828203905092915050565b600062001194826200119b565b9050919050565b600073ffffffffffffffffffffffffffffffffffffffff82169050919050565b6000819050919050565b60005b83811015620011e5578082015181840152602081019050620011c8565b83811115620011f5576000848401525b50505050565b600060028204905060018216806200121457607f821691505b602082108114156200122b576200122a6200128f565b5b50919050565b7f4e487b7100000000000000000000000000000000000000000000000000000000600052601160045260246000fd5b7f4e487b7100000000000000000000000000000000000000000000000000000000600052601260045260246000fd5b7f4e487b7100000000000000000000000000000000000000000000000000000000600052602260045260246000fd5b600080fd5b6000601f19601f8301169050919050565b7f536166654d6174683a206164646974696f6e206f766572666c6f770000000000600082015250565b7f42524332303a207472616e736665722066726f6d20746865207a65726f20616460008201527f6472657373000000000000000000000000000000000000000000000000000000602082015250565b7f42524332303a207472616e7366657220746f20746865207a65726f206164647260008201527f6573730000000000000000000000000000000000000000000000000000000000602082015250565b7f536166654d6174683a206d756c7469706c69636174696f6e206f766572666c6f60008201527f7700000000000000000000000000000000000000000000000000000000000000602082015250565b7f21212121204665652063616c63756c6174696f6e000000000000000000000000600082015250565b7f42455032303a206d696e7420746f20746865207a65726f206164647265737300600082015250565b620014478162001187565b81146200145357600080fd5b50565b6132ef80620014666000396000f3fe608060405234801561001057600080fd5b50600436106102945760003560e01c80638a8117ef11610167578063ad01d190116100ce578063e71c0dfc11610087578063e71c0dfc14610800578063f2fde38b1461081e578063f78fe9781461083a578063f83e9d3c1461086a578063fc426bf514610888578063fe37fdf4146108a657610294565b8063ad01d1901461073a578063b69ef8a814610758578063c69d90bf14610776578063da3c71d914610794578063dd62ed3e146107b2578063e530a7d0146107e257610294565b80639b19251a116101205780639b19251a146106505780639bab9c3d14610680578063a457c2d71461069e578063a46abb6a146106ce578063a9059cbb146106ec578063ab0c52a11461071c57610294565b80638a8117ef1461058a5780638da5cb5b146105a85780638e04c484146105c6578063921ce176146105e457806395d89b411461060257806397b4e10a1461062057610294565b80633857331c1161020b57806370a08231116101c457806370a08231146104da578063715018a61461050a5780637d063bab146105145780638394a86b1461054457806388d6bec414610562578063893d20e81461056c57610294565b80633857331c1461040657806339509351146104225780633fb888181461045257806353d6fd59146104825780635a4d1b6a1461049e57806368e3d6f7146104bc57610294565b80631e9c18341161025d5780631e9c18341461032d5780631fa0d6211461035e57806323b872dd1461037c578063313ce567146103ac57806332cb6b0c146103ca57806335943e35146103e857610294565b80625097fd1461029957806306fdde03146102b7578063095ea7b3146102d557806318160ddd146103055780631bdc4b2914610323575b600080fd5b6102a16108c2565b6040516102ae9190612b38565b60405180910390f35b6102bf6108d1565b6040516102cc9190612956565b60405180910390f35b6102ef60048036038101906102ea9190612654565b610963565b6040516102fc919061293b565b60405180910390f35b61030d610981565b60405161031a9190612b38565b60405180910390f35b61032b61098b565b005b610347600480360381019061034291906125c1565b610aa9565b604051610355929190612b53565b60405180910390f35b610366610bba565b6040516103739190612b38565b60405180910390f35b610396600480360381019061039191906125c1565b610bc9565b6040516103a3919061293b565b60405180910390f35b6103b4610ca2565b6040516103c19190612b7c565b60405180910390f35b6103d2610cb9565b6040516103df9190612b38565b60405180910390f35b6103f0610cc8565b6040516103fd9190612920565b60405180910390f35b610420600480360381019061041b9190612694565b610cee565b005b61043c60048036038101906104379190612654565b610db8565b604051610449919061293b565b60405180910390f35b61046c60048036038101906104679190612654565b610e6b565b604051610479919061293b565b60405180910390f35b61049c60048036038101906104979190612614565b610f34565b005b6104a661100b565b6040516104b39190612b38565b60405180910390f35b6104c4611011565b6040516104d19190612b38565b60405180910390f35b6104f460048036038101906104ef9190612554565b611020565b6040516105019190612b38565b60405180910390f35b610512611069565b005b61052e60048036038101906105299190612581565b6111a3565b60405161053b919061293b565b60405180910390f35b61054c61125f565b6040516105599190612b38565b60405180910390f35b61056a611265565b005b610574611383565b6040516105819190612920565b60405180910390f35b610592611392565b60405161059f9190612b38565b60405180910390f35b6105b06113a1565b6040516105bd9190612920565b60405180910390f35b6105ce6113ca565b6040516105db9190612920565b60405180910390f35b6105ec6113f0565b6040516105f99190612b38565b60405180910390f35b61060a6113f6565b6040516106179190612956565b60405180910390f35b61063a60048036038101906106359190612694565b611488565b604051610647919061293b565b60405180910390f35b61066a60048036038101906106659190612554565b611515565b604051610677919061293b565b60405180910390f35b610688611535565b6040516106959190612920565b60405180910390f35b6106b860048036038101906106b39190612654565b61155b565b6040516106c5919061293b565b60405180910390f35b6106d6611628565b6040516106e39190612b38565b60405180910390f35b61070660048036038101906107019190612654565b61162e565b604051610713919061293b565b60405180910390f35b61072461164c565b6040516107319190612b38565b60405180910390f35b610742611673565b60405161074f9190612b38565b60405180910390f35b610760611791565b60405161076d9190612b38565b60405180910390f35b61077e6117d8565b60405161078b9190612b38565b60405180910390f35b61079c6117de565b6040516107a99190612b38565b60405180910390f35b6107cc60048036038101906107c79190612581565b6117e4565b6040516107d99190612b38565b60405180910390f35b6107ea61186b565b6040516107f79190612b38565b60405180910390f35b61080861187a565b6040516108159190612920565b60405180910390f35b61083860048036038101906108339190612554565b6118a0565b005b610854600480360381019061084f9190612554565b611a49565b604051610861919061293b565b60405180910390f35b610872611a69565b60405161087f9190612b38565b60405180910390f35b610890611a6f565b60405161089d9190612b38565b60405180910390f35b6108c060048036038101906108bb9190612614565b611b8d565b005b6a34f086f3b33b684000000081565b6060600480546108e090612d50565b80601f016020809104026020016040519081016040528092919081815260200182805461090c90612d50565b80156109595780601f1061092e57610100808354040283529160200191610959565b820191906000526020600020905b81548152906001019060200180831161093c57829003601f168201915b5050505050905090565b6000610977610970611e35565b8484611e3d565b6001905092915050565b6000600354905090565b60011515601160009054906101000a900460ff161515146109e1576040517f08c379a00000000000000000000000000000000000000000000000000000000081526004016109d8906129b8565b60405180910390fd5b60006109eb611a6f565b90506000811115610aa6576000610a18600f546a04f68ca6d8cd91c6000000611deb90919063ffffffff16565b9050818111610a40576000601160006101000a81548160ff0219169083151502179055508091505b610a5662ed4e0042611c6490919063ffffffff16565b600781905550610a7182600f54611c6490919063ffffffff16565b600f81905550610aa430600960009054906101000a900473ffffffffffffffffffffffffffffffffffffffff1684612008565b505b50565b600080600080849050601360008873ffffffffffffffffffffffffffffffffffffffff1673ffffffffffffffffffffffffffffffffffffffff16815260200190815260200160002060009054906101000a900460ff16158015610b565750601460008773ffffffffffffffffffffffffffffffffffffffff1673ffffffffffffffffffffffffffffffffffffffff16815260200190815260200160002060009054906101000a900460ff16155b8015610b6457506000601254115b15610baa57610b926103e8610b8460125488611d2690919063ffffffff16565b611da190919063ffffffff16565b9150610ba78286611deb90919063ffffffff16565b90505b8181935093505050935093915050565b6a084595161401484a00000081565b6000610bd6848484612008565b610c9784610be2611e35565b610c928560405180606001604052806028815260200161322560289139600260008b73ffffffffffffffffffffffffffffffffffffffff1673ffffffffffffffffffffffffffffffffffffffff1681526020019081526020016000206000610c48611e35565b73ffffffffffffffffffffffffffffffffffffffff1673ffffffffffffffffffffffffffffffffffffffff16815260200190815260200160002054611cc29092919063ffffffff16565b611e3d565b600190509392505050565b6000600660009054906101000a900460ff16905090565b6a52b7d2dcc80cd2e400000081565b600a60009054906101000a900473ffffffffffffffffffffffffffffffffffffffff1681565b610cf6611e35565b73ffffffffffffffffffffffffffffffffffffffff16610d146113a1565b73ffffffffffffffffffffffffffffffffffffffff1614610d6a576040517f08c379a0000000000000000000000000000000000000000000000000000000008152600401610d6190612ab8565b60405180910390fd5b600a811115610dae576040517f08c379a0000000000000000000000000000000000000000000000000000000008152600401610da590612978565b60405180910390fd5b8060128190555050565b6000610e61610dc5611e35565b84610e5c8560026000610dd6611e35565b73ffffffffffffffffffffffffffffffffffffffff1673ffffffffffffffffffffffffffffffffffffffff16815260200190815260200160002060008973ffffffffffffffffffffffffffffffffffffffff1673ffffffffffffffffffffffffffffffffffffffff16815260200190815260200160002054611c6490919063ffffffff16565b611e3d565b6001905092915050565b6000610e75611e35565b73ffffffffffffffffffffffffffffffffffffffff16610e936113a1565b73ffffffffffffffffffffffffffffffffffffffff1614610ee9576040517f08c379a0000000000000000000000000000000000000000000000000000000008152600401610ee090612ab8565b60405180910390fd5b6000610ef361164c565b9050828111610f06576000915050610f2e565b610f1b83600e54611c6490919063ffffffff16565b600e81905550610f2c308585612008565b505b92915050565b610f3c611e35565b73ffffffffffffffffffffffffffffffffffffffff16610f5a6113a1565b73ffffffffffffffffffffffffffffffffffffffff1614610fb0576040517f08c379a0000000000000000000000000000000000000000000000000000000008152600401610fa790612ab8565b60405180910390fd5b80601360008473ffffffffffffffffffffffffffffffffffffffff1673ffffffffffffffffffffffffffffffffffffffff16815260200190815260200160002060006101000a81548160ff0219169083151502179055505050565b600f5481565b6a04f68ca6d8cd91c600000081565b6000600160008373ffffffffffffffffffffffffffffffffffffffff1673ffffffffffffffffffffffffffffffffffffffff168152602001908152602001600020549050919050565b611071611e35565b73ffffffffffffffffffffffffffffffffffffffff1661108f6113a1565b73ffffffffffffffffffffffffffffffffffffffff16146110e5576040517f08c379a00000000000000000000000000000000000000000000000000000000081526004016110dc90612ab8565b60405180910390fd5b600073ffffffffffffffffffffffffffffffffffffffff1660008054906101000a900473ffffffffffffffffffffffffffffffffffffffff1673ffffffffffffffffffffffffffffffffffffffff167f8be0079c531659141344cd1fd0a4f28419497f9722a3daafe3b4186f6b6457e060405160405180910390a360008060006101000a81548173ffffffffffffffffffffffffffffffffffffffff021916908373ffffffffffffffffffffffffffffffffffffffff160217905550565b6000601360008473ffffffffffffffffffffffffffffffffffffffff1673ffffffffffffffffffffffffffffffffffffffff16815260200190815260200160002060009054906101000a900460ff161580156112495750601460008373ffffffffffffffffffffffffffffffffffffffff1673ffffffffffffffffffffffffffffffffffffffff16815260200190815260200160002060009054906101000a900460ff16155b801561125757506000601254115b905092915050565b60075481565b60011515601160019054906101000a900460ff161515146112bb576040517f08c379a00000000000000000000000000000000000000000000000000000000081526004016112b290612a38565b60405180910390fd5b60006112c5611673565b905060008111156113805760006112f26010546a0c685fa11e01ec6f000000611deb90919063ffffffff16565b905081811161131a576000601160016101000a81548160ff0219169083151502179055508091505b61133062ed4e0042611c6490919063ffffffff16565b60088190555061134b82601054611c6490919063ffffffff16565b60108190555061137e30600a60009054906101000a900473ffffffffffffffffffffffffffffffffffffffff1684612008565b505b50565b600061138d6113a1565b905090565b6a0c685fa11e01ec6f00000081565b60008060009054906101000a900473ffffffffffffffffffffffffffffffffffffffff16905090565b600c60009054906101000a900473ffffffffffffffffffffffffffffffffffffffff1681565b60125481565b60606005805461140590612d50565b80601f016020809104026020016040519081016040528092919081815260200182805461143190612d50565b801561147e5780601f106114535761010080835404028352916020019161147e565b820191906000526020600020905b81548152906001019060200180831161146157829003601f168201915b5050505050905090565b6000611492611e35565b73ffffffffffffffffffffffffffffffffffffffff166114b06113a1565b73ffffffffffffffffffffffffffffffffffffffff1614611506576040517f08c379a00000000000000000000000000000000000000000000000000000000081526004016114fd90612ab8565b60405180910390fd5b6115103083612309565b919050565b60136020528060005260406000206000915054906101000a900460ff1681565b600b60009054906101000a900473ffffffffffffffffffffffffffffffffffffffff1681565b600061161e611568611e35565b84611619856040518060600160405280602581526020016132736025913960026000611592611e35565b73ffffffffffffffffffffffffffffffffffffffff1673ffffffffffffffffffffffffffffffffffffffff16815260200190815260200160002060008a73ffffffffffffffffffffffffffffffffffffffff1673ffffffffffffffffffffffffffffffffffffffff16815260200190815260200160002054611cc29092919063ffffffff16565b611e3d565b6001905092915050565b60085481565b600061164261163b611e35565b8484612008565b6001905092915050565b600061166e600e546a34f086f3b33b6840000000611deb90919063ffffffff16565b905090565b600060011515601160019054906101000a900460ff161515146116cb576040517f08c379a00000000000000000000000000000000000000000000000000000000081526004016116c290612a38565b60405180910390fd5b600060085411611710576040517f08c379a000000000000000000000000000000000000000000000000000000000815260040161170790612af8565b60405180910390fd5b600854421015611723576000905061178e565b60006117576064611749600a6a0c685fa11e01ec6f000000611d2690919063ffffffff16565b611da190919063ffffffff16565b9050600061177b6010546a0c685fa11e01ec6f000000611deb90919063ffffffff16565b9050818111611788578091505b81925050505b90565b6000600160003073ffffffffffffffffffffffffffffffffffffffff1673ffffffffffffffffffffffffffffffffffffffff16815260200190815260200160002054905090565b60105481565b600d5481565b6000600260008473ffffffffffffffffffffffffffffffffffffffff1673ffffffffffffffffffffffffffffffffffffffff16815260200190815260200160002060008373ffffffffffffffffffffffffffffffffffffffff1673ffffffffffffffffffffffffffffffffffffffff16815260200190815260200160002054905092915050565b6a0422ca8b0a00a42500000081565b600960009054906101000a900473ffffffffffffffffffffffffffffffffffffffff1681565b6118a8611e35565b73ffffffffffffffffffffffffffffffffffffffff166118c66113a1565b73ffffffffffffffffffffffffffffffffffffffff161461191c576040517f08c379a000000000000000000000000000000000000000000000000000000000815260040161191390612ab8565b60405180910390fd5b600073ffffffffffffffffffffffffffffffffffffffff168173ffffffffffffffffffffffffffffffffffffffff16141561198c576040517f08c379a0000000000000000000000000000000000000000000000000000000008152600401611983906129d8565b60405180910390fd5b8073ffffffffffffffffffffffffffffffffffffffff1660008054906101000a900473ffffffffffffffffffffffffffffffffffffffff1673ffffffffffffffffffffffffffffffffffffffff167f8be0079c531659141344cd1fd0a4f28419497f9722a3daafe3b4186f6b6457e060405160405180910390a3806000806101000a81548173ffffffffffffffffffffffffffffffffffffffff021916908373ffffffffffffffffffffffffffffffffffffffff16021790555050565b60146020528060005260406000206000915054906101000a900460ff1681565b600e5481565b600060011515601160009054906101000a900460ff16151514611ac7576040517f08c379a0000000000000000000000000000000000000000000000000000000008152600401611abe906129b8565b60405180910390fd5b600060075411611b0c576040517f08c379a0000000000000000000000000000000000000000000000000000000008152600401611b0390612af8565b60405180910390fd5b600754421015611b1f5760009050611b8a565b6000611b536064611b4560216a04f68ca6d8cd91c6000000611d2690919063ffffffff16565b611da190919063ffffffff16565b90506000611b77600f546a04f68ca6d8cd91c6000000611deb90919063ffffffff16565b9050818111611b84578091505b81925050505b90565b611b95611e35565b73ffffffffffffffffffffffffffffffffffffffff16611bb36113a1565b73ffffffffffffffffffffffffffffffffffffffff1614611c09576040517f08c379a0000000000000000000000000000000000000000000000000000000008152600401611c0090612ab8565b60405180910390fd5b80601460008473ffffffffffffffffffffffffffffffffffffffff1673ffffffffffffffffffffffffffffffffffffffff16815260200190815260200160002060006101000a81548160ff0219169083151502179055505050565b6000808284611c739190612bb3565b905083811015611cb8576040517f08c379a0000000000000000000000000000000000000000000000000000000008152600401611caf906129f8565b60405180910390fd5b8091505092915050565b6000838311158290611d0a576040517f08c379a0000000000000000000000000000000000000000000000000000000008152600401611d019190612956565b60405180910390fd5b5060008385611d199190612c94565b9050809150509392505050565b600080831415611d395760009050611d9b565b60008284611d479190612c3a565b9050828482611d569190612c09565b14611d96576040517f08c379a0000000000000000000000000000000000000000000000000000000008152600401611d8d90612a78565b60405180910390fd5b809150505b92915050565b6000611de383836040518060400160405280601a81526020017f536166654d6174683a206469766973696f6e206279207a65726f0000000000008152506124ad565b905092915050565b6000611e2d83836040518060400160405280601e81526020017f536166654d6174683a207375627472616374696f6e206f766572666c6f770000815250611cc2565b905092915050565b600033905090565b600073ffffffffffffffffffffffffffffffffffffffff168373ffffffffffffffffffffffffffffffffffffffff161415611ead576040517f08c379a0000000000000000000000000000000000000000000000000000000008152600401611ea490612998565b60405180910390fd5b600073ffffffffffffffffffffffffffffffffffffffff168273ffffffffffffffffffffffffffffffffffffffff161415611f1d576040517f08c379a0000000000000000000000000000000000000000000000000000000008152600401611f1490612b18565b60405180910390fd5b80600260008573ffffffffffffffffffffffffffffffffffffffff1673ffffffffffffffffffffffffffffffffffffffff16815260200190815260200160002060008473ffffffffffffffffffffffffffffffffffffffff1673ffffffffffffffffffffffffffffffffffffffff168152602001908152602001600020819055508173ffffffffffffffffffffffffffffffffffffffff168373ffffffffffffffffffffffffffffffffffffffff167f8c5be1e5ebec7d5bd14f71427d1e84f3dd0314c0f7b2291e5b200ac8c7c3b92583604051611ffb9190612b38565b60405180910390a3505050565b600073ffffffffffffffffffffffffffffffffffffffff168373ffffffffffffffffffffffffffffffffffffffff161415612078576040517f08c379a000000000000000000000000000000000000000000000000000000000815260040161206f90612a18565b60405180910390fd5b600073ffffffffffffffffffffffffffffffffffffffff168273ffffffffffffffffffffffffffffffffffffffff1614156120e8576040517f08c379a00000000000000000000000000000000000000000000000000000000081526004016120df90612a58565b60405180910390fd5b6120f3838383612510565b61215f8160405180606001604052806026815260200161324d60269139600160008773ffffffffffffffffffffffffffffffffffffffff1673ffffffffffffffffffffffffffffffffffffffff16815260200190815260200160002054611cc29092919063ffffffff16565b600160008573ffffffffffffffffffffffffffffffffffffffff1673ffffffffffffffffffffffffffffffffffffffff168152602001908152602001600020819055506000806121b0858585610aa9565b91509150826121c88284611c6490919063ffffffff16565b14612208576040517f08c379a00000000000000000000000000000000000000000000000000000000081526004016121ff90612a98565b60405180910390fd5b61225a81600160008773ffffffffffffffffffffffffffffffffffffffff1673ffffffffffffffffffffffffffffffffffffffff16815260200190815260200160002054611c6490919063ffffffff16565b600160008673ffffffffffffffffffffffffffffffffffffffff1673ffffffffffffffffffffffffffffffffffffffff168152602001908152602001600020819055508373ffffffffffffffffffffffffffffffffffffffff168573ffffffffffffffffffffffffffffffffffffffff167fddf252ad1be2c89b69c2b068fc378daa952ba7f163c4a11628f55a4df523b3ef836040516122fa9190612b38565b60405180910390a35050505050565b600073ffffffffffffffffffffffffffffffffffffffff168273ffffffffffffffffffffffffffffffffffffffff161415612379576040517f08c379a000000000000000000000000000000000000000000000000000000000815260040161237090612ad8565b60405180910390fd5b6123e58160405180606001604052806022815260200161329860229139600160008673ffffffffffffffffffffffffffffffffffffffff1673ffffffffffffffffffffffffffffffffffffffff16815260200190815260200160002054611cc29092919063ffffffff16565b600160008473ffffffffffffffffffffffffffffffffffffffff1673ffffffffffffffffffffffffffffffffffffffff1681526020019081526020016000208190555061243d81600354611deb90919063ffffffff16565b600381905550600073ffffffffffffffffffffffffffffffffffffffff168273ffffffffffffffffffffffffffffffffffffffff167fddf252ad1be2c89b69c2b068fc378daa952ba7f163c4a11628f55a4df523b3ef836040516124a19190612b38565b60405180910390a35050565b600080831182906124f4576040517f08c379a00000000000000000000000000000000000000000000000000000000081526004016124eb9190612956565b60405180910390fd5b50600083856125039190612c09565b9050809150509392505050565b505050565b600081359050612524816131df565b92915050565b600081359050612539816131f6565b92915050565b60008135905061254e8161320d565b92915050565b60006020828403121561256a57612569612e0f565b5b600061257884828501612515565b91505092915050565b6000806040838503121561259857612597612e0f565b5b60006125a685828601612515565b92505060206125b785828601612515565b9150509250929050565b6000806000606084860312156125da576125d9612e0f565b5b60006125e886828701612515565b93505060206125f986828701612515565b925050604061260a8682870161253f565b9150509250925092565b6000806040838503121561262b5761262a612e0f565b5b600061263985828601612515565b925050602061264a8582860161252a565b9150509250929050565b6000806040838503121561266b5761266a612e0f565b5b600061267985828601612515565b925050602061268a8582860161253f565b9150509250929050565b6000602082840312156126aa576126a9612e0f565b5b60006126b88482850161253f565b91505092915050565b6126ca81612cc8565b82525050565b6126d981612cda565b82525050565b60006126ea82612b97565b6126f48185612ba2565b9350612704818560208601612d1d565b61270d81612e14565b840191505092915050565b6000612725600d83612ba2565b915061273082612e25565b602082019050919050565b6000612748602483612ba2565b915061275382612e4e565b604082019050919050565b600061276b602583612ba2565b915061277682612e9d565b604082019050919050565b600061278e602683612ba2565b915061279982612eec565b604082019050919050565b60006127b1601b83612ba2565b91506127bc82612f3b565b602082019050919050565b60006127d4602583612ba2565b91506127df82612f64565b604082019050919050565b60006127f7602483612ba2565b915061280282612fb3565b604082019050919050565b600061281a602383612ba2565b915061282582613002565b604082019050919050565b600061283d602183612ba2565b915061284882613051565b604082019050919050565b6000612860601483612ba2565b915061286b826130a0565b602082019050919050565b6000612883602083612ba2565b915061288e826130c9565b602082019050919050565b60006128a6602183612ba2565b91506128b1826130f2565b604082019050919050565b60006128c9602183612ba2565b91506128d482613141565b604082019050919050565b60006128ec602283612ba2565b91506128f782613190565b604082019050919050565b61290b81612d06565b82525050565b61291a81612d10565b82525050565b600060208201905061293560008301846126c1565b92915050565b600060208201905061295060008301846126d0565b92915050565b6000602082019050818103600083015261297081846126df565b905092915050565b6000602082019050818103600083015261299181612718565b9050919050565b600060208201905081810360008301526129b18161273b565b9050919050565b600060208201905081810360008301526129d18161275e565b9050919050565b600060208201905081810360008301526129f181612781565b9050919050565b60006020820190508181036000830152612a11816127a4565b9050919050565b60006020820190508181036000830152612a31816127c7565b9050919050565b60006020820190508181036000830152612a51816127ea565b9050919050565b60006020820190508181036000830152612a718161280d565b9050919050565b60006020820190508181036000830152612a9181612830565b9050919050565b60006020820190508181036000830152612ab181612853565b9050919050565b60006020820190508181036000830152612ad181612876565b9050919050565b60006020820190508181036000830152612af181612899565b9050919050565b60006020820190508181036000830152612b11816128bc565b9050919050565b60006020820190508181036000830152612b31816128df565b9050919050565b6000602082019050612b4d6000830184612902565b92915050565b6000604082019050612b686000830185612902565b612b756020830184612902565b9392505050565b6000602082019050612b916000830184612911565b92915050565b600081519050919050565b600082825260208201905092915050565b6000612bbe82612d06565b9150612bc983612d06565b9250827fffffffffffffffffffffffffffffffffffffffffffffffffffffffffffffffff03821115612bfe57612bfd612d82565b5b828201905092915050565b6000612c1482612d06565b9150612c1f83612d06565b925082612c2f57612c2e612db1565b5b828204905092915050565b6000612c4582612d06565b9150612c5083612d06565b9250817fffffffffffffffffffffffffffffffffffffffffffffffffffffffffffffffff0483118215151615612c8957612c88612d82565b5b828202905092915050565b6000612c9f82612d06565b9150612caa83612d06565b925082821015612cbd57612cbc612d82565b5b828203905092915050565b6000612cd382612ce6565b9050919050565b60008115159050919050565b600073ffffffffffffffffffffffffffffffffffffffff82169050919050565b6000819050919050565b600060ff82169050919050565b60005b83811015612d3b578082015181840152602081019050612d20565b83811115612d4a576000848401525b50505050565b60006002820490506001821680612d6857607f821691505b60208210811415612d7c57612d7b612de0565b5b50919050565b7f4e487b7100000000000000000000000000000000000000000000000000000000600052601160045260246000fd5b7f4e487b7100000000000000000000000000000000000000000000000000000000600052601260045260246000fd5b7f4e487b7100000000000000000000000000000000000000000000000000000000600052602260045260246000fd5b600080fd5b6000601f19601f8301169050919050565b7f6d61782066656520697320312500000000000000000000000000000000000000600082015250565b7f42455032303a20617070726f76652066726f6d20746865207a65726f2061646460008201527f7265737300000000000000000000000000000000000000000000000000000000602082015250565b7f50726f6365737320756e6c6f636b20746f6b656e20496e766573746f7220686160008201527f7320656e64000000000000000000000000000000000000000000000000000000602082015250565b7f4f776e61626c653a206e6577206f776e657220697320746865207a65726f206160008201527f6464726573730000000000000000000000000000000000000000000000000000602082015250565b7f536166654d6174683a206164646974696f6e206f766572666c6f770000000000600082015250565b7f42524332303a207472616e736665722066726f6d20746865207a65726f20616460008201527f6472657373000000000000000000000000000000000000000000000000000000602082015250565b7f50726f6365737320756e6c6f636b20746f6b656e20466f7564696e672068617360008201527f20656e6400000000000000000000000000000000000000000000000000000000602082015250565b7f42524332303a207472616e7366657220746f20746865207a65726f206164647260008201527f6573730000000000000000000000000000000000000000000000000000000000602082015250565b7f536166654d6174683a206d756c7469706c69636174696f6e206f766572666c6f60008201527f7700000000000000000000000000000000000000000000000000000000000000602082015250565b7f21212121204665652063616c63756c6174696f6e000000000000000000000000600082015250565b7f4f776e61626c653a2063616c6c6572206973206e6f7420746865206f776e6572600082015250565b7f42455032303a206275726e2066726f6d20746865207a65726f2061646472657360008201527f7300000000000000000000000000000000000000000000000000000000000000602082015250565b7f696e697454696d65206f6620636f6e74726163742063616e206e6f74207a657260008201527f6f00000000000000000000000000000000000000000000000000000000000000602082015250565b7f42455032303a20617070726f766520746f20746865207a65726f20616464726560008201527f7373000000000000000000000000000000000000000000000000000000000000602082015250565b6131e881612cc8565b81146131f357600080fd5b50565b6131ff81612cda565b811461320a57600080fd5b50565b61321681612d06565b811461322157600080fd5b5056fe42455032303a207472616e7366657220616d6f756e74206578636565647320616c6c6f77616e636542524332303a207472616e7366657220616d6f756e7420657863656564732062616c616e636542455032303a2064656372656173656420616c6c6f77616e63652062656c6f77207a65726f42455032303a206275726e20616d6f756e7420657863656564732062616c616e6365a2646970667358221220f8a70cd9a36ba450eb817dd923b1360555f9f811ac9ae687d0d53c9b1b5e722f64736f6c6343000806003342524332303a207472616e7366657220616d6f756e7420657863656564732062616c616e6365",
  "immutableReferences": {},
  "source": "// SPDX-License-Identifier: MIT\r\npragma solidity 0.8.6;\r\n\r\nimport \"./IBEP20.sol\";\r\nimport \"./Context.sol\";\r\nimport \"./SafeMath.sol\";\r\nimport \"./Ownable.sol\";\r\nimport \"./BaseERC.sol\";\r\nimport \"./Address.sol\";\r\n//token owner will be a time lock contract after farming started\r\ncontract  GFX is Context, Ownable, BaseERC {\r\n    using SafeMath for uint256;\r\n    using Address for address;\r\n\r\n    struct LockedToken {\r\n        bool isUnlocked;\r\n        uint256 unlockedTime;\r\n        uint256 amount;\r\n    }\r\n    struct  AddressMiningTxn{\r\n        address _addr;\r\n        uint256 _txn;\r\n        bool isMining;\r\n    }\r\n    uint256 public constant MAX_SUPPLY = 100000000e18;//100M\r\n    uint256 public constant MINING = 64000000e18;//64M TRADE NFT FOR GOT IT FULL LOCKNTIME - UNLOCK EVERY MINING\r\n    uint256 public constant AIRDROP = 10000000e18;//10M FULL LOCKTIME - UNLOCK EVERY CLAIM\r\n    uint256 public constant MARKETING = 5000000e18;//5M\r\n    uint256 public constant INVESTOR = 6000000e18;//6M LOCK TIME 12 MONTH - UNCLOCK EVERY 6 MONTH WITH 33% LAST RELEASE 1%\r\n    uint256 public constant FOUDING = 15000000e18;//15M LOCK TIME 24 MONTH - UNCLOCK EVERY 6 MONTH WITH 10%\r\n\r\n    uint256 public initTimeInvestor;\r\n    uint256 public initTimeFouding;\r\n\r\n    address public tokenInvestor;\r\n    address public tokenFouding;\r\n    address public tokenMarketing;\r\n    address public tokenAirdrop;\r\n    \r\n    uint256 public marketingUnlocked = 0;\r\n    uint256 public totalMiningunlock = 0;\r\n    uint256 public investorUnlocked = 0;\r\n    uint256 public foudingUnlocked = 0;\r\n    \r\n    bool unlockProcessInvesting = true;\r\n    bool unlockProcessFouding = true;\r\n    \r\n   constructor(address _fouding, address _investing, address _marketing, address _airdrop)  BaseERC(\"Gofox\", \"GFX\") {\r\n        initialSetup(_fouding,_investing, _marketing, _airdrop);\r\n    }\r\n\r\n    function initialSetup( address _fouding, address _investing, address _marketing, address _airdrop) internal {\r\n        initTimeInvestor = block.timestamp.add(30*86400*12);//1 YEAR AT NOW FOR INVESTOR\r\n        initTimeFouding = block.timestamp.add(30*86400*24);//2 YEAR AT NOW FOUDING\r\n        tokenInvestor = _investing;\r\n        tokenFouding = _fouding;\r\n        tokenAirdrop = _airdrop;\r\n        tokenMarketing = _marketing;\r\n\r\n\r\n        whitelist[address(this)] = true;\r\n        _mint(address(this), MAX_SUPPLY);//FOUDING AND INVESTOR HAD UNLOCK WITH RULES\r\n        _transfer(address(this), tokenAirdrop, AIRDROP);//ALLOTMENT FOR AIRDROP\r\n        _transfer(address(this), tokenMarketing, MARKETING);//ALLOTMENT FOR MARKETING\r\n    }\r\n\r\n    //GET AMOUNT TOKEN UNLOCK OF INVESTOR\r\n    function releasableInvestor() public view returns (uint256) {\r\n        require(unlockProcessInvesting==true, \"Process unlock token Investor has end\");\r\n        require(initTimeInvestor > 0,\"initTime of contract can not zero\");\r\n        if(block.timestamp<initTimeInvestor) return 0;\r\n        uint256 totalReleasable = INVESTOR.mul(33).div(100);\r\n        \r\n        uint256 supply_remain = INVESTOR.sub(investorUnlocked);\r\n        \r\n        if(supply_remain<=totalReleasable){\r\n                totalReleasable = supply_remain;\r\n        }\r\n        return totalReleasable;\r\n    }\r\n\r\n    //GET AMOUNT TOKEN UNLOCK OF FOUDING\r\n    function releasableFouding() public view returns (uint256) {\r\n        require(unlockProcessFouding==true, \"Process unlock token Fouding has end\");\r\n        require(initTimeFouding > 0,\"initTime of contract can not zero\");\r\n        if(block.timestamp<initTimeFouding) return 0;\r\n        \r\n        uint256 totalReleasable = FOUDING.mul(10).div(100);\r\n        uint256 supply_remain = FOUDING.sub(foudingUnlocked);\r\n           if(supply_remain<=totalReleasable){\r\n                totalReleasable = supply_remain;\r\n        }\r\n        \r\n        return totalReleasable;\r\n    }\r\n\r\n    function releasableMining() public view returns (uint256){\r\n        return MINING.sub(totalMiningunlock);\r\n    }\r\n    \r\n    //UNLOCK TOKEN FOR FOUDING\r\n    function releaseFouding()  public {\r\n        require(unlockProcessFouding==true, \"Process unlock token Fouding has end\");\r\n        uint256 releasable = releasableFouding();\r\n        if (releasable > 0) {\r\n            \r\n            uint256 supply_remain = FOUDING.sub(foudingUnlocked);\r\n            if(supply_remain<=releasable){\r\n                unlockProcessFouding = false;\r\n                releasable = supply_remain;\r\n            }\r\n            initTimeFouding = block.timestamp.add(6 * 30 * 86400);//ADD 6 MONTH FOR NEXT RELEASE\r\n            foudingUnlocked = foudingUnlocked.add(releasable);\r\n            _transfer(address(this), tokenFouding, releasable);\r\n        }\r\n    }\r\n\r\n    //UNLOCK TOKEN FOR INVESTOR\r\n    function releaseInvestor() public {\r\n        require(unlockProcessInvesting==true, \"Process unlock token Investor has end\");\r\n        uint256 releasable = releasableInvestor();\r\n        if (releasable > 0) {\r\n            uint256 supply_remain = INVESTOR.sub(investorUnlocked);\r\n            if(supply_remain<=releasable){\r\n                unlockProcessInvesting = false;\r\n                releasable = supply_remain;\r\n            }\r\n            \r\n            initTimeInvestor  = block.timestamp.add(6 * 30 * 86400);//ADD 6 MONTH FOR NEXT RELEASE\r\n            investorUnlocked = investorUnlocked.add(releasable);\r\n            _transfer(address(this), tokenInvestor, releasable);\r\n        }\r\n    }\r\n    \r\n\r\n    uint256 public txFeePerThousand = 0;    \r\n    function setFeePerThousand(uint256 _fee) public onlyOwner {\r\n        require(_fee <= 10, \"max fee is 1%\");\r\n        txFeePerThousand = _fee;\r\n    }\r\n    mapping (address => bool) public whitelist;    //reserved for token contract, masterchef, pancake pair\r\n    mapping (address => bool) public whitelistRecipient;    //reserved for token contract, masterchef, pancake pair\r\n    // mapping (address => bool) public accountClaimded;\r\n    function setWhitelist(address _addr, bool _val) public onlyOwner {\r\n        whitelist[_addr] = _val;\r\n    }\r\n\r\n    function setlistRecipient(address _addr, bool _val) public onlyOwner {\r\n        whitelistRecipient[_addr] = _val;\r\n    }\r\n\r\n    \r\n    function miningToken(address recipient, uint256 amount)public onlyOwner returns (bool success) {\r\n        uint256 releasable = releasableMining();\r\n        if(releasable<=amount) return false;//CHECK TOTAL AIRDROP AVAILABLE SUPPLY\r\n        totalMiningunlock = totalMiningunlock.add(amount);\r\n       _transfer(address(this), recipient, amount);\r\n    }\r\n    \r\n    function shouldHaveFee(address sender, address recipient) public view returns (bool) {\r\n        return !whitelist[sender] && !whitelistRecipient[recipient] && txFeePerThousand > 0;\r\n    }\r\n    \r\n    function computeTxFee(address sender, address recipient, uint256 amount) public view returns (uint256, uint256) {\r\n        uint256 fee = 0;\r\n        uint256 recipientAmount = amount;\r\n        if (!whitelist[sender] && !whitelistRecipient[recipient] && txFeePerThousand > 0) {\r\n            fee = amount.mul(txFeePerThousand).div(1000);\r\n            recipientAmount = amount.sub(fee);\r\n        }\r\n        return (fee, recipientAmount);\r\n    }\r\n\r\n\tfunction _transfer(address sender, address recipient, uint256 amount) internal override {\r\n        require(sender != address(0), \"BRC20: transfer from the zero address\");\r\n        require(recipient != address(0), \"BRC20: transfer to the zero address\");\r\n\r\n        _beforeTokenTransfer(sender, recipient, amount);\r\n\r\n        _balances[sender] = _balances[sender].sub(amount, \"BRC20: transfer amount exceeds balance\");\r\n\r\n        (uint256 fee, uint256 recipientAmount) = computeTxFee(sender, recipient, amount);\r\n        \r\n        require(fee.add(recipientAmount) == amount, \"!!!! Fee calculation\");\r\n\r\n        _balances[recipient] = _balances[recipient].add(recipientAmount);\r\n        emit Transfer(sender, recipient, recipientAmount);\r\n\r\n\t}\r\n\t\r\n\tfunction balance() public view returns (uint256){\r\n\t    return _balances[address(this)];\r\n\t}\r\n\t//ONLY OWNER APPROVE BURN TOKEN\r\n\tfunction _burnToken(uint256 amount) public onlyOwner returns(bool success){\r\n\t    _burn(address(this),amount);\r\n\t}\r\n}",
  "sourcePath": "D:/environment/source/GOFOX_TOKEN/Build/contracts/GFX.sol",
  "compiler": {
    "name": "solc",
    "version": "0.8.6+commit.11564f7e.Emscripten.clang"
  },
  "schemaVersion": "3.4.1",
  "updatedAt": "2021-07-09T17:48:43.981Z",
  "devdoc": {
    "kind": "dev",
    "methods": {
      "allowance(address,address)": {
        "details": "See {BEP20-allowance}."
      },
      "approve(address,uint256)": {
        "details": "See {BEP20-approve}. Requirements: - `spender` cannot be the zero address."
      },
      "balanceOf(address)": {
        "details": "See {BEP20-balanceOf}."
      },
      "decimals()": {
        "details": "Returns the token decimals."
      },
      "decreaseAllowance(address,uint256)": {
        "details": "Atomically decreases the allowance granted to `spender` by the caller. This is an alternative to {approve} that can be used as a mitigation for problems described in {BEP20-approve}. Emits an {Approval} event indicating the updated allowance. Requirements: - `spender` cannot be the zero address. - `spender` must have allowance for the caller of at least `subtractedValue`."
      },
      "getOwner()": {
        "details": "Returns the bep token owner."
      },
      "increaseAllowance(address,uint256)": {
        "details": "Atomically increases the allowance granted to `spender` by the caller. This is an alternative to {approve} that can be used as a mitigation for problems described in {BEP20-approve}. Emits an {Approval} event indicating the updated allowance. Requirements: - `spender` cannot be the zero address."
      },
      "name()": {
        "details": "Returns the token name."
      },
      "owner()": {
        "details": "Returns the address of the current owner."
      },
      "renounceOwnership()": {
        "details": "Leaves the contract without owner. It will not be possible to call `onlyOwner` functions anymore. Can only be called by the current owner. NOTE: Renouncing ownership will leave the contract without an owner, thereby removing any functionality that is only available to the owner."
      },
      "symbol()": {
        "details": "Returns the token symbol."
      },
      "totalSupply()": {
        "details": "See {BEP20-totalSupply}."
      },
      "transfer(address,uint256)": {
        "details": "See {BEP20-transfer}. Requirements: - `recipient` cannot be the zero address. - the caller must have a balance of at least `amount`."
      },
      "transferFrom(address,address,uint256)": {
        "details": "See {BEP20-transferFrom}. Emits an {Approval} event indicating the updated allowance. This is not required by the EIP. See the note at the beginning of {BEP20}; Requirements: - `sender` and `recipient` cannot be the zero address. - `sender` must have a balance of at least `amount`. - the caller must have allowance for `sender`'s tokens of at least `amount`."
      },
      "transferOwnership(address)": {
        "details": "Transfers ownership of the contract to a new account (`newOwner`). Can only be called by the current owner."
      }
    },
    "version": 1
  },
  "userdoc": {
    "kind": "user",
    "methods": {},
    "version": 1
  }
}